:04000000E1EF1DF01F
:103AF8004A01036906010225E7E7E7E7C7C7C7C721
:103B0800226E22C0C9FF2A0EE82EFED700D0C95067
:103B1800120022042310D8A406D0050EE82EFED7E2
:103B280000F08984120089941200C698C78CC78E49
:103B38000F0EC86EC650F00B0A09C66EC68A898475
:103B48001200080E926E000E936E100E946E040E04
:103B5800896E000E8A6E000E8B6E1200000E236EA8
:103B6800000E226E8DEC1DF0FF0E84EC1DF0216E10
:103B7800000E236E010E226E8DEC1DF01200000E59
:103B8800266E000E256E000E266E000E256E0AD0DB
:103B9800E50E246E910EE82EFED7242EFCD700F0F9
:103BA800254A262A2650800A246E2250255C235056
:103BB800800A2458D8B01200EBD700EE60F0200E2F
:103BC800EE6AE806FDE100EE01F0210EEE6AE80675
:103BD800FDE1F80EF66E3A0EF76E000EF86E00EE86
:103BE80035F010EE10F00900F5CFEEFFE550E1508A
:103BF800FAE10001DDEF1EF0266E000E236E000EC6
:103C0800226E8DEC1DF02650770AD8A408D02450D7
:103C1800200984EC1DF0255084EC1DF00BD02650B3
:103C2800720AD8A407D0245084EC1DF0FF0E84EC4F
:103C38001DF0256E000E236E010E226E8DEC1DF018
:103C48001200000E236E000E226E8DEC1DF0300E59
:103C580084EC1DF027502610D8B426D0000E2D6E07
:103C6800010E2C6E17D0FF0E286EFF0E296E2CC089
:103C78002AF02DC02BF028502A2629502B222A5012
:103C88002424D96E2B502520DA6EDF5084EC1DF0E9
:103C98002C4A2D2A2750800A286E2C50265C2D503D
:103CA800800A2858D8B0DFD7000E236E010E226E86
:103CB8008DEC1DF012002C6E000E236E000E226E8D
:103CC8008DEC1DF02C50200984EC1DF02750261097
:103CD800D8B426D0000E2E6E010E2D6E17D0FF0E12
:103CE800286EFF0E296E2DC02AF02EC02BF028500A
:103CF8002A2629502B222A502424D96E2B502520DD
:103D0800DA6EDF5084EC1DF02D4A2E2A2750800AE7
:103D1800286E2D50265C2E50800A2858D8B0DFD740
:103D2800000E236E010E226E8DEC1DF01200000EA7
:103D3800236E000E226E8DEC1DF0A00E84EC1DF09B
:103D480025502410D8B428D0000E2B6E010E2A6EF0
:103D580019D0FF0E266EFF0E276E2AC028F02BC042
:103D680029F026502826275029220001600E2824F1
:103D7800D96E0001000E2920DA6EDF5084EC1DF0A8
:103D88002A4A2B2A2550800A266E2A50245C2B505A
:103D9800800A2658D8B0DDD7000E236E010E226E99
:103DA8008DEC1DF089823A0EE82EFED700D089925C
:103DB8001200A5EC1DF099EC1DF097EC1FF0000E19
:103DC800236E010E226EC3EC1DF0000E346E010E40
:103DD800336E33C060F0000E256E010E246E9BEC2E
:103DE8001EF0334A342A000E236E010E226EC3ECF5
:103DF8001DF0B2EC1DF002D0B2EC1DF021500E0AFD
:103E0800D8B4FAD7080E246E000E266E010E256E61
:103E1800720E32EC1FF001C032F0F00E3216D8B438
:103E28000AD08980000E236E0A0E226EC3EC1DF0A4
:103E38008990B2EC1DF0700E0001606F070E246EC1
:103E4800000E266E010E256E770E32EC1FF0000E66
:103E5800236E500E226EC3EC1DF0BBD72F6E000EE2
:103E6800236E000E226E8DEC1DF02F50770AD8A419
:103E780005D02450200984EC1DF00FD02F50720A71
:103E8800D8A404D0245084EC1DF007D02F506E0A1B
:103E9800D8A403D0245084EC1DF026502510D8B4A3
:103EA8003BD0000E316E010E306E2CD0FF0E276E07
:103EB800FF0E286E30C029F031C02AF0275029267D
:103EC80028502A22010E2924D96E000E2A20DA6EE3
:103ED800FF0E2B6EFF0E2C6E30C02DF031C02EF071
:103EE8002B502D262C502E220001600E2D24E16E21
:103EF8000001000E2E20E26EE75084EC1DF0DF6E0C
:103F0800304A312A2650800A276E3050255C3150BD
:103F1800800A2758D8B0CAD7000E236E010E226E29
:103F28008DEC1DF01200000E246E35C025F0770EC2
:103F380000EC1EF0010E246E36C025F0770E00EC62
:103F48001EF0020E246E37C025F0770E00EC1EF02E
:103F5800030E246E3BC025F0770E00EC1EF0040E15
:103F6800246E3CC025F0770E00EC1EF0050E246E82
:103F780038C025F0770E00EC1EF0060E246E39C00E
:103F880025F0770E00EC1EF0000E256E410E246E13
:103F9800000E276E040E266E0A0E5FEC1EF0000E51
:103FA800256E3D0E246E000E276E040E266E0B0E37
:103FB8005FEC1EF0000E256E410E246E000E276E7B
:103FC800040E266E25EC1EF0110E246E3AC025F064
:103FD800770E00EC1EF0120E246E3AC025F0770E14
:103FE80000EC1EF0E10E246E000E266E000E256E0B
:083FF8006E0E32EC1FF0120006
:020000040020DA
:08000000FFFFFFFFFFFFFFFF00
:020000040030CA
:0E000000FF321E3CFFBD85FF03C003E003403E
:00000001FF
