:0400000048EF1FF0B6
:103E9000096A086A0001A0EF1FF001C0C9FF0B0EFC
:103EA000036E620EE82EFED7032EFCD700D0120060
:103EB000C698C78CC78E1F0EC86EC650F00B0A0975
:103EC000C66EC68A1200000E896E000E8A6E000E43
:103ED0008B6E040E926E000E936E100E946E120096
:103EE000000E026EA00E016E4DEC1FF004C001F03A
:103EF00005C002F04DEC1FF089826A0EE82EFED755
:103F000000D089921200000E056E000E046E000EA5
:103F1000056E000E046E09D0D00E036ECA0EE82E98
:103F2000FED7032EFCD7044A052A0550800A036EEB
:103F30000150045C0250800A0358D8B01200ECD73C
:103F400063EC1FF058EC1FF0C9EC1FF0898008C02B
:103F500004F009C005F070EC1FF0084A092A8990A6
:103F6000000E076E000E066E000E076E000E066E47
:103F70000750800A800F050ED8B4065CD8B0E6D78B
:103F8000000E026E050E016E83EC1FF0064A072A32
:103F9000EFD7000E026E200E016E4DEC1FF0000EEA
:103FA000026E0A0E016E4DEC1FF0000E026E230E23
:103FB000016E4DEC1FF0000E026E010E016E4DEC15
:103FC0001FF0000E026E250E016E4DEC1FF0000E6C
:103FD000026E690E016E4DEC1FF0000E026E260E91
:103FE000016E4DEC1FF0000E026E060E016E4DECE0
:103FF0001FF0000E026EE10E016E4DEC1FF012007C
:020000040020DA
:08000000FFFFFFFFFFFFFFFF00
:020000040030CA
:0E000000FF321E3CFFBD85FF03C003E003403E
:00000001FF
