:04000000DEEF1DF022
:103AF5005A016906010220E7E7E7E7E7E7E7E72379
:103B05006E23C0C9FFA00EE82EFED7C950120023B0
:103B1500042410D8A406D00A0EE82EFED700D089BA
:103B250084120089941200C698C78CC78E3F0EC8B0
:103B35006EC650F00B0A09C66EC68A898412000843
:103B45000E926E000E936E100E946E040E896E002A
:103B55000E8A6E000E8B6E1200000E246E000E2370
:103B65006E8AEC1DF0FF0E82EC1DF0226E000E2415
:103B75006E010E236E8AEC1DF01200000E276E00FA
:103B85000E266E000E276E000E266E0AD0E50E2557
:103B95006E910EE82EFED7252EFCD700F0264A277B
:103BA5002A2750800A256E2350265C2450800A253A
:103BB50058D8B01200EBD700EE60F0200EEE6AE8A0
:103BC50006FDE100EE01F0220EEE6AE806FDE1F5E4
:103BD5000EF66E3A0EF76E000EF86E00EE35F0102A
:103BE500EE0FF00900F5CFEEFFE550E150FAE100E8
:103BF500012EEF1EF0276E000E246E000E236E8A36
:103C0500EC1DF02750770AD8A40CD0255020098246
:103C1500EC1DF06A0EE82EFED700D0265082EC1D72
:103C2500F00FD02750720AD8A40BD0255082EC1D76
:103C3500F06A0EE82EFED700D0FF0E82EC1DF026AE
:103C45006E6A0EE82EFED700D0000E246E010E23FC
:103C55006E8AEC1DF01200A2EC1DF096EC1DF044EE
:103C6500EC1FF08988000E246E010E236EC0EC1D3A
:103C7500F0000E346E010E336E33C001F0000E26D7
:103C85006E010E256EF5EC1EF0334A342AAFEC1D9D
:103C9500F0000E246E010E236EC0EC1DF022500EB6
:103CA5000AD8B413D08980700E016E070E256E00F8
:103CB5000E276E010E266E770E9BEC1FF0000E246C
:103CC5006E010E236EC0EC1DF08990000E246E016E
:103CD5000E236EC0EC1DF0D0D7000E246E000E230F
:103CE5006E8AEC1DF0300E82EC1DF01A0EE82EFEE9
:103CF500D700D028502710D8B42AD0000E2E6E0138
:103D05000E2D6E1BD0FF0E296EFF0E2A6E2DC02BB9
:103D1500F02EC02CF029502B262A502C222B502572
:103D250024D96E2C502620DA6EDF5082EC1DF0353A
:103D35000EE82EFED700F02D4A2E2A2850800A299B
:103D45006E2D50275C2E50800A2958D8B0DBD7003D
:103D55000E246E010E236E8AEC1DF012002D6E00EE
:103D65000E246E000E236E8AEC1DF02D5020098264
:103D7500EC1DF01A0EE82EFED700D028502710D8DB
:103D8500B42AD0000E2F6E010E2E6E1BD0FF0E2909
:103D95006EFF0E2A6E2EC02BF02FC02CF029502B53
:103DA500262A502C222B502524D96E2C502620DA79
:103DB5006EDF5082EC1DF0350EE82EFED700F02E9A
:103DC5004A2F2A2850800A296E2E50275C2F5080B2
:103DD5000A2958D8B0DBD7000E246E010E236E8A4F
:103DE500EC1DF01200000E246E000E236E8AEC1DF1
:103DF500F0A00E82EC1DF0D50EE82EFED700F026C1
:103E0500502510D8B42AD0000E2C6E010E2B6E1B37
:103E1500D0FF0E276EFF0E286E2BC029F02CC02A6E
:103E2500F02750292628502A22010E2924D96E0070
:103E35000E2A20DA6EDF5082EC1DF0D50EE82EFE3C
:103E4500D700F02B4A2C2A2650800A276E2B5025A6
:103E55005C2C50800A2758D8B0DBD7000E246E01A1
:103E65000E236E8AEC1DF08982400EE82EFED7895E
:103E750092040E276EBC0EE82EFED7272EFCD70027
:103E8500D01200000E256E35C026F0770EFDEC1D14
:103E9500F0010E256E21C026F0770EFDEC1DF00217
:103EA5000E256E36C026F0770EFDEC1DF0030E25AF
:103EB5006E3AC026F0770EFDEC1DF0040E256E3B24
:103EC500C026F0770EFDEC1DF0050E256E37C026D9
:103ED500F0770EFDEC1DF0060E256E38C026F07746
:103EE5000EFDEC1DF0000E266E3C0E256E000E2814
:103EF5006E040E276E0A0EB1EC1EF0000E266E4003
:103F05000E256E000E286E040E276E6FEC1EF01146
:103F15000E256E39C026F0770EFDEC1DF0E10E255D
:103F25006E000E276E000E266E6E0E9BEC1FF012B5
:103F350000306E000E246E000E236E8AEC1DF030EC
:103F450050770AD8A405D02550200982EC1DF00F22
:103F5500D03050720AD8A404D0255082EC1DF00749
:103F6500D030506E0AD8A403D0255082EC1DF0271E
:103F7500502610D8B43BD0000E326E010E316E2C97
:103F8500D0FF0E286EFF0E296E31C02AF032C02BED
:103F9500F028502A2629502B220001600E2A24D908
:103FA5006E0001000E2B20DA6EFF0E2C6EFF0E2D1B
:103FB5006E31C02EF032C02FF02C502E262D502FF2
:103FC50022010E2E24E16E000E2F20E26EE75082B4
:103FD500EC1DF0DF6E314A322A2750800A286E31F7
:103FE50050265C3250800A2858D8B0CAD7000E2413
:0C3FF5006E010E236E8AEC1DF01200FF1E
:020000040020DA
:08000000FFFFFFFFFFFFFFFF00
:020000040030CA
:0E000000FF321E3CFFBD85FF03C003E003403E
:00000001FF
