:04000000F1EF1DF00F
:103B18000A03036906010235E7E7E7E7C7C7C7C72E
:103B2800226E22C0C9FF2A0EE82EFED700D0C95047
:103B3800120022042310D8A406D0050EE82EFED7C2
:103B480000F08984120089941200C698C78CC78E29
:103B58000F0EC86EC650F00B0A09C66EC68A898455
:103B68001200080E926E000E936E100E946E040EE4
:103B7800896E000E8A6E000E8B6E1200000E236E88
:103B8800000E226E9DEC1DF0FF0E94EC1DF0216ED0
:103B9800000E236E010E226E9DEC1DF01200000E29
:103BA800266E000E256E000E266E000E256E0AD0BB
:103BB800E50E246E910EE82EFED7242EFCD700F0D9
:103BC800254A262A2650800A246E2250255C235036
:103BD800800A2458D8B01200EBD700EE60F0200E0F
:103BE800EE6AE806FDE100EE01F0210EEE6AE80655
:103BF800FDE1180EF66E3B0EF76E000EF86E00EE45
:103C080034F010EE10F00900F5CFEEFFE550E1506A
:103C1800FAE10001EBEF1EF0266E000E236E000E97
:103C2800226E9DEC1DF02650770AD8A408D02450A7
:103C3800200994EC1DF0255094EC1DF00BD0265073
:103C4800720AD8A407D0245094EC1DF0FF0E94EC0F
:103C58001DF0256E000E236E010E226E9DEC1DF0E8
:103C68001200000E236E000E226E9DEC1DF0300E29
:103C780094EC1DF027502610D8B426D0000E2D6ED7
:103C8800010E2C6E17D0FF0E286EFF0E296E2CC069
:103C98002AF02DC02BF028502A2629502B222A50F2
:103CA8002424D96E2B502520DA6EDF5094EC1DF0B9
:103CB8002C4A2D2A2750800A286E2C50265C2D501D
:103CC800800A2858D8B0DFD7000E236E010E226E66
:103CD8009DEC1DF012002C6E000E236E000E226E5D
:103CE8009DEC1DF02C50200994EC1DF02750261057
:103CF800D8B426D0000E2E6E010E2D6E17D0FF0EF2
:103D0800286EFF0E296E2DC02AF02EC02BF02850E9
:103D18002A2629502B222A502424D96E2B502520BC
:103D2800DA6EDF5094EC1DF02D4A2E2A2750800AB7
:103D3800286E2D50265C2E50800A2858D8B0DFD720
:103D4800000E236E010E226E9DEC1DF01200000E77
:103D5800236E000E226E9DEC1DF0A00E94EC1DF05B
:103D680025502410D8B426D0000E2B6E010E2A6ED2
:103D780017D0FF0E266EFF0E276E2AC028F02BC024
:103D880029F02650282627502922010E2824D96EEA
:103D9800000E2920DA6EDF5094EC1DF02A4A2B2AF7
:103DA8002550800A266E2A50245C2B50800A2658FB
:103DB800D8B0DFD7000E236E010E226E9DEC1DF0E9
:103DC80089823A0EE82EFED700D089921200B5EC0F
:103DD8001DF0A9EC1DF097EC1FF0000E236E010EEC
:103DE800226ED3EC1DF0000E336E010E326E32C01F
:103DF80001F0000E256E010E246EABEC1EF0324A67
:103E0800332A000E236E020E226ED3EC1DF0C2EC94
:103E18001DF021A808D08980000E236E050E226EA1
:103E2800D3EC1DF08990700E016E070E246E000E03
:103E3800266E010E256E770E32EC1FF0E10E246E11
:103E4800000E266E000E256E6E0E32EC1FF0000E70
:103E5800236E640E226ED3EC1DF0C9D72F6E000EB0
:103E6800236E000E226E9DEC1DF02F50770AD8A409
:103E780005D02450200994EC1DF00FD02F50720A61
:103E8800D8A404D0245094EC1DF007D02F506E0A0B
:103E9800D8A403D0245094EC1DF026502510D8B493
:103EA8003BD0000E316E010E306E2CD0FF0E276E07
:103EB800FF0E286E30C029F031C02AF0275029267D
:103EC80028502A220001600E2924D96E0001000E14
:103ED8002A20DA6EFF0E2B6EFF0E2C6E30C02DF0EE
:103EE80031C02EF02B502D262C502E22010E2D24C1
:103EF800E16E000E2E20E26EE75094EC1DF0DF6EAE
:103F0800304A312A2650800A276E3050255C3150BD
:103F1800800A2758D8B0CAD7000E236E010E226E29
:103F28009DEC1DF01200000E246E34C025F0770EB3
:103F380010EC1EF0010E246E35C025F0770E10EC43
:103F48001EF0020E246E36C025F0770E10EC1EF01F
:103F5800030E246E3AC025F0770E10EC1EF0040E06
:103F6800246E3BC025F0770E10EC1EF0050E246E73
:103F780037C025F0770E10EC1EF0060E246E38C000
:103F880025F0770E10EC1EF0000E256E400E246E04
:103F9800000E276E040E266E0A0E6FEC1EF0000E41
:103FA800256E3C0E246E000E276E040E266E0B0E38
:103FB8006FEC1EF0000E256E400E246E000E276E6C
:103FC800040E266E35EC1EF0110E246E39C025F055
:103FD800770E10EC1EF0120E246E39C025F0770E05
:103FE80010EC1EF0E10E246E000E266E000E256EFB
:083FF8006E0E32EC1FF0120006
:020000040020DA
:08000000FFFFFFFFFFFFFFFF00
:020000040030CA
:0E000000FF321E3CFFBD85FF03C003E003403E
:00000001FF
