:0400000021EF1FF0DD
:103DB0000A0269060102E7E7E7E7E7E7E7E7000E3F
:103DC000896E000E8A6E000E8B6E080E926E000ECB
:103DD000936E100E946E1200516E8994050EE82EAB
:103DE000FED700F051C0C9FFB00EE82EFED789847F
:103DF0001A0EE82EFED700D01200526EA00EECEC88
:103E00001EF05250ECEC1EF08982400EE82EFED7D8
:103E10008992350EE82EFED700F01200C698C78CA6
:103E2000C78E3F0EC86EC650F00B0A09C66EC68A12
:103E30008984E40E00D000D0E82EFCD700D000D05A
:103E4000120000EE01F0420EEE6AE806FDE1B00E4F
:103E5000F66E3D0EF76E000EF86E00EE43F010EEBB
:103E60000EF00900F5CFEEFFE550E150FAE1000158
:103E700090EF1FF0300EECEC1EF0000E556E000EB1
:103E8000546E5550800A800F040ED8B4545CD8B0DC
:103E9000120054505224D96E55505320DA6EDF5020
:103EA000ECEC1EF0544A552AECD7546E54502009BD
:103EB000ECEC1EF0000E566E000E556E5650800A49
:103EC000800F040ED8B4555CD8B01200555052245F
:103ED000D96E56505320DA6EDF50ECEC1EF0554A86
:103EE000562AECD7000E556E000E546E000E556E1D
:103EF000000E546E0AD0E50E536E910EE82EFED7DA
:103F0000532EFCD700F0544A552A5550800A536E60
:103F10005150545C5250800A5358D8B01200EBD71D
:103F2000DFEC1EF00EEC1FF0C5EC1FF04150FDEC75
:103F30001EF0414A422A270EECEC1EF0700EECEC0B
:103F40001EF0000E586E000E576E000E586E000EDA
:103F5000576E5850800A800F050ED8B4575CD8B001
:103F6000E5D75850800A800F030ED8B4575CD8A00C
:103F700002D0898001D08990000E526E140E516ECD
:103F800072EC1FF0574A582AE4D7200EECEC1EF0D2
:103F90004350ECEC1EF0220EECEC1EF04450ECEC26
:103FA0001EF0210EECEC1EF0000EECEC1EF0230EC9
:103FB000ECEC1EF04850ECEC1EF0320EECEC1EF077
:103FC0004750ECEC1EF0000E536E4D0E526E3AEC64
:103FD0001FF0000E536E490E526E0B0E55EC1FF083
:103FE000250EECEC1EF04550ECEC1EF0260EECEC31
:103FF0001EF04650ECEC1EF0E10EECEC1EF0120050
:020000040020DA
:08000000FFFFFFFFFFFFFFFF00
:020000040030CA
:0E000000FF321E3CFFBD85FF03C003E003403E
:00000001FF
