:04000000F4EF1DF00C
:103B1F005A016906010220E7E7E7E7E7E7E7E7234E
:103B2F006E23C0C9FF2A0EE82EFED700D0C950124F
:103B3F000023042410D8A406D0050EE82EFED700CB
:103B4F00F08984120089941200C698C78CC78E0F13
:103B5F000EC86EC650F00B0A09C66EC68A8984124B
:103B6F0000080E926E000E936E100E946E040E8966
:103B7F006E000E8A6E000E8B6E1200000E246E0009
:103B8F000E236EA0EC1DF0FF0E97EC1DF0226E00C1
:103B9F000E246E010E236EA0EC1DF01200000E27F6
:103BAF006E000E266E000E276E000E266E0AD0E5F2
:103BBF000E256E910EE82EFED7252EFCD700F0268F
:103BCF004A272A2750800A256E2350265C245080CE
:103BDF000A2558D8B01200EBD700EE60F0200EEE99
:103BEF006AE806FDE100EE01F0220EEE6AE806FD3E
:103BFF00E11F0EF66E3B0EF76E000EF86E00EE35FF
:103C0F00F010EE0FF00900F5CFEEFFE550E150FA9E
:103C1F00E1000172EF1EF0276E000E246E000E23DE
:103C2F006EA0EC1DF02750770AD8A408D02550209D
:103C3F000997EC1DF0265097EC1DF00BD027507212
:103C4F000AD8A407D0255097EC1DF0FF0E97EC1D56
:103C5F00F0266E000E246E010E236EA0EC1DF012E6
:103C6F0000000E246E000E236EA0EC1DF0300E9798
:103C7F00EC1DF028502710D8B426D0000E2E6E0160
:103C8F000E2D6E17D0FF0E296EFF0E2A6E2DC02B34
:103C9F00F02EC02CF029502B262A502C222B5025E9
:103CAF0024D96E2C502620DA6EDF5097EC1DF02DA4
:103CBF004A2E2A2850800A296E2D50275C2E5080BC
:103CCF000A2958D8B0DFD7000E246E010E236EA03C
:103CDF00EC1DF01200B8EC1DF0ACEC1DF0E8EC1E82
:103CEF00F0000E246E010E236ED6EC1DF0000E3484
:103CFF006E010E336E33C001F0000E266E010E25DD
:103D0F006E3FEC1FF0334A342AC5EC1DF022500EE3
:103D1F000AD8B413D08980700E016E070E256E007D
:103D2F000E276E010E266E770E9BEC1FF0000E24F1
:103D3F006E140E236ED6EC1DF08990000E246E507B
:103D4F000E236ED6EC1DF0D6D72D6E000E246E000E
:103D5F000E236EA0EC1DF02D50200997EC1DF028BE
:103D6F00502710D8B426D0000E2F6E010E2E6E17CE
:103D7F00D0FF0E296EFF0E2A6E2EC02BF02FC02CF7
:103D8F00F029502B262A502C222B502524D96E2C6B
:103D9F00502620DA6EDF5097EC1DF02E4A2F2A287E
:103DAF0050800A296E2E50275C2F50800A2958D830
:103DBF00B0DFD7000E246E010E236EA0EC1DF012A3
:103DCF0000000E256E35C026F0770E13EC1EF001A5
:103DDF000E256E21C026F0770E13EC1EF0020E2575
:103DEF006E36C026F0770E13EC1EF0030E256E3ADA
:103DFF00C026F0770E13EC1EF0040E256E3BC02686
:103E0F00F0770E13EC1EF0050E256E37C026F077F7
:103E1F000E13EC1EF0060E256E38C026F0770E132B
:103E2F00EC1EF0000E266E3C0E256E000E286E0462
:103E3F000E276E0A0EACEC1EF0000E266E400E25FD
:103E4F006E000E286E040E276E38EC1EF0110E2534
:103E5F006E39C026F0770E13EC1EF0E10E256E00C2
:103E6F000E276E000E266E6E0E9BEC1FF0120000DA
:103E7F000E246E000E236EA0EC1DF0A00E97EC1D0D
:103E8F00F026502510D8B426D0000E2E6E010E2D20
:103E9F006E17D0FF0E276EFF0E286E2DC029F02E45
:103EAF00C02AF02750292628502A22010E2924D96A
:103EBF006E000E2A20DA6EDF5097EC1DF02D4A2E81
:103ECF002A2650800A276E2D50255C2E50800A27F7
:103EDF0058D8B0DFD7000E246E010E236EA0EC1D54
:103EEF00F089823A0EE82EFED700D08992040E2771
:103EFF006E870EE82EFED7272EFCD700F0000E2C73
:103F0F006E000E2B6E05D0400EE82EFED72B4A2CDE
:103F1F002A2C50800A276E25502B5C2650800A27AA
:103F2F0058D8B01200F0D7306E000E246E000E235A
:103F3F006EA0EC1DF03050770AD8A405D025502084
:103F4F000997EC1DF00FD03050720AD8A404D02579
:103F5F005097EC1DF007D030506E0AD8A403D0252F
:103F6F005097EC1DF027502610D8B43BD0000E32DE
:103F7F006E010E316E2CD0FF0E286EFF0E296E31A2
:103F8F00C02AF032C02BF028502A2629502B2200AD
:103F9F0001600E2A24D96E0001000E2B20DA6EFF6D
:103FAF000E2C6EFF0E2D6E31C02EF032C02FF02C66
:103FBF00502E262D502F22010E2E24E16E000E2F93
:103FCF0020E26EE75097EC1DF0DF6E314A322A2760
:103FDF0050800A286E3150265C3250800A2858D8FB
:103FEF00B0CAD7000E246E010E236EA0EC1DF01286
:023FFF0000FFC1
:020000040020DA
:08000000FFFFFFFFFFFFFFFF00
:020000040030CA
:0E000000FF321E3CFFBD85FF03C003E003403E
:00000001FF
