:0400000024EF1EF0DB
:103B73005A016906010220E7E7E7E7E7E7E7E723FA
:103B83006E23C0C9FFD50E00D000F0E82EFCD7008D
:103B9300D0C9501200C698C78CC78E7F0EC86EC698
:103BA30050F00B0A09C66EC68A89841200080E9269
:103BB3006E000E936E100E946E040E896E000E8AC4
:103BC3006E000E8B6E12006A0EE82EFED700D02315
:103BD300042410D8A402D0898401D08994D50EE896
:103BE3002EFED700F01200000E246E000E236EE5A9
:103BF300EC1DF0FF0EC1EC1DF0226E000E246E01D1
:103C03000E236EE5EC1DF01200000E276E000E264B
:103C13006E000E276E000E266E0AD0E50E256E91FD
:103C23000EE82EFED7252EFCD700F0264A272A279A
:103C330050800A256E2350265C2450800A2558D8CC
:103C4300B01200EBD700EE60F0200EEE6AE806FD3E
:103C5300E100EE01F0220EEE6AE806FDE1730EF6D6
:103C63006E3B0EF76E000EF86E00EE33F010EE0FA3
:103C7300F00900F5CFEEFFE550E150FAE100015500
:103C8300EF1FF0000E246E000E236EE5EC1DF030E6
:103C93000EC1EC1DF0000E2B6E010E2A6E0BD02A06
:103CA300502524D96E2B502620DA6EDF50C1EC1D2F
:103CB300F02A4A2B2A2850800A296E2A50275C2B87
:103CC30050800A2958D8B0EBD7000E246E010E237A
:103CD3006EE5EC1DF012002A6E000E246E000E231A
:103CE3006EE5EC1DF02A502009C1EC1DF0000E2CEE
:103CF3006E010E2B6E0BD02B502524D96E2C502623
:103D030020DA6EDF50C1EC1DF02B4A2C2A2850809C
:103D13000A296E2B50275C2C50800A2958D8B0EB07
:103D2300D7000E246E010E236EE5EC1DF012002762
:103D33006E000E246E000E236EE5EC1DF027507707
:103D43000AD8A40CD025502009C1EC1DF06A0EE856
:103D53002EFED700D02650C1EC1DF00FD027507295
:103D63000AD8A40BD02550C1EC1DF06A0EE82EFE34
:103D7300D700D0FF0EC1EC1DF0266E000E246E019D
:103D83000E236EE5EC1DF06A0EE82EFED700D0126E
:103D930000000E246E000E236EE5EC1DF0A00E2530
:103DA3006E000E276E000E266E6E0E04EC1FF000E2
:103DB3000E306E010E2F6E0FD0010E2F24D96E0020
:103DC3000E3020DA6EDF50C1EC1DF06A0EE82EFED5
:103DD300D700D02F4A302A2D50800A2E6E2F502C18
:103DE3005C3050800A2E58D8B0E7D7000E246E01FD
:103DF3000E236EE5EC1DF089823A0EE82EFED70005
:103E0300D089921200296E000E246E000E236EE5F7
:103E1300EC1DF02950770AD8A405D025502009C1FC
:103E2300EC1DF00FD02950720AD8A404D02550C13C
:103E3300EC1DF007D029506E0AD8A403D02550C139
:103E4300EC1DF06A0EE82EFED700D0000E2B6E019B
:103E53000E2A6E18D00001600E2A24D96E000100CC
:103E63000E2B20DA6E010E2A24E16E000E2B20E2C7
:103E73006EE750C1EC1DF0DF6E6A0EE82EFED70030
:103E8300D02A4A2B2A2750800A286E2A50265C2BD8
:103E930050800A2858D8B0DED7000E246E010E23B6
:103EA3006EE5EC1DF01200D8EC1DF0CCEC1DF0A972
:103EB300EC1FF0000E246E010E236E06EC1EF000C4
:103EC3000E326E000E316E31C001F06A0EE82EFE26
:103ED300D700D0000E2D6E010E2C6ECAEC1EF031F1
:103EE3004A322AF5EC1DF0000E246E010E236E06F5
:103EF300EC1EF022500E0AD8B411D08980070E258B
:103F03006E000E276E700E266E770E04EC1FF00007
:103F13000E246E010E236E06EC1EF08990E10E2531
:103F23006E000E276E000E266E6E0E04EC1FF00060
:103F33000E256E000E276E010E266E720E04EC1F08
:103F4300F0000E246E050E236E06EC1EF0BCD700A7
:103F53000E256E33C026F0770E99EC1EF0010E2568
:103F63006E21C026F0770E99EC1EF0020E256E34FA
:103F7300C026F0770E99EC1EF0030E256E38C0268E
:103F8300F0770E99EC1EF0040E256E39C026F077FB
:103F93000E99EC1EF0050E256E35C026F0770E99AE
:103FA300EC1EF0060E256E36C026F0770E99EC1E39
:103FB300F0000E266E3A0E256E000E286E040E27B4
:103FC3006E0A0E6DEC1EF0000E266E3E0E256E0080
:103FD3000E286E040E276E43EC1EF0110E256E376D
:103FE300C026F0770E99EC1EF0E10E256E000E2729
:0E3FF3006E000E266E6E0E04EC1FF01200FF24
:020000040020DA
:08000000FFFFFFFFFFFFFFFF00
:020000040030CA
:0E000000FF321E3CFFBD85FF03C003E003403E
:00000001FF
