:04000000DBEF1DF025
:103AED004A016906010220E7E7E7E7C7C7C7C72311
:103AFD006E23C0C9FF2A0EE82EFED700D0C9501282
:103B0D000023042410D8A406D0050EE82EFED700FD
:103B1D00F08984120089941200C698C78CC78E0F45
:103B2D000EC86EC650F00B0A09C66EC68A8984127D
:103B3D0000080E926E000E936E100E946E040E8998
:103B4D006E000E8A6E000E8B6E1200000E246E003B
:103B5D000E236E87EC1DF0FF0E7EEC1DF0226E0025
:103B6D000E246E010E236E87EC1DF01200000E2741
:103B7D006E000E266E000E276E000E266E0AD0E524
:103B8D000E256E910EE82EFED7252EFCD700F026C1
:103B9D004A272A2750800A256E2350265C24508000
:103BAD000A2558D8B01200EBD700EE60F0200EEECB
:103BBD006AE806FDE100EE01F0220EEE6AE806FD70
:103BCD00E1ED0EF66E3A0EF76E000EF86E00EE3564
:103BDD00F010EE0FF00900F5CFEEFFE550E150FAD1
:103BED00E10001D5EF1EF0276E000E246E000E23AE
:103BFD006E87EC1DF02750770AD8A408D0255020E9
:103C0D00097EEC1DF026507EEC1DF00BD027507276
:103C1D000AD8A407D025507EEC1DF0FF0E7EEC1DBA
:103C2D00F0266E000E246E010E236E87EC1DF01231
:103C3D0000000E246E000E236E87EC1DF0300E7EFC
:103C4D00EC1DF028502710D8B426D0000E2E6E0192
:103C5D000E2D6E17D0FF0E296EFF0E2A6E2DC02B66
:103C6D00F02EC02CF029502B262A502C222B50251B
:103C7D0024D96E2C502620DA6EDF507EEC1DF02DEF
:103C8D004A2E2A2850800A296E2D50275C2E5080EE
:103C9D000A2958D8B0DFD7000E246E010E236E8787
:103CAD00EC1DF012002D6E000E246E000E236E879B
:103CBD00EC1DF02D5020097EEC1DF028502710D85A
:103CCD00B426D0000E2F6E010E2E6E17D0FF0E29CA
:103CDD006EFF0E2A6E2EC02BF02FC02CF029502B0C
:103CED00262A502C222B502524D96E2C502620DA32
:103CFD006EDF507EEC1DF02E4A2F2A2850800A29A7
:103D0D006E2E50275C2F50800A2958D8B0DFD7006F
:103D1D000E246E010E236E87EC1DF01200000E2492
:103D2D006E000E236E87EC1DF0A00E7EEC1DF026AE
:103D3D00502510D8B426D0000E2C6E010E2B6E1708
:103D4D00D0FF0E276EFF0E286E2BC029F02CC02A37
:103D5D00F02750292628502A22010E2924D96E0039
:103D6D000E2A20DA6EDF507EEC1DF02B4A2C2A260F
:103D7D0050800A276E2B50255C2C50800A2758D86E
:103D8D00B0DFD7000E246E010E236E87EC1DF08977
:103D9D00823A0EE82EFED700D0899212009FEC1DBC
:103DAD00F093EC1DF08EEC1FF0000E246E010E232F
:103DBD006EBDEC1DF0000E346E010E336E33C0017E
:103DCD00F0000E266E010E256E95EC1EF0334A3472
:103DDD002A000E246E010E236EBDEC1DF0ACEC1D01
:103DED00F022500E0AD8B408D08980000E246E142B
:103DFD000E236EBDEC1DF08990700E016E070E2521
:103E0D006E000E276E010E266E770E29EC1FF0E167
:103E1D000E256E000E276E000E266E6E0E29EC1FFF
:103E2D00F0E20E256E000E276E000E266E6E0E2928
:103E3D00EC1FF0ACEC1DF0000E246E640E236EBD75
:103E4D00EC1DF0BCD7306E000E246E000E236E8775
:103E5D00EC1DF03050770AD8A405D0255020097EEE
:103E6D00EC1DF00FD03050720AD8A404D025507E2E
:103E7D00EC1DF007D030506E0AD8A403D025507E2B
:103E8D00EC1DF027502610D8B43BD0000E326E0139
:103E9D000E316E2CD0FF0E286EFF0E296E31C02A0A
:103EAD00F032C02BF028502A2629502B2200016019
:103EBD000E2A24D96E0001000E2B20DA6EFF0E2C77
:103ECD006EFF0E2D6E31C02EF032C02FF02C502E05
:103EDD00262D502F22010E2E24E16E000E2F20E2F2
:103EED006EE7507EEC1DF0DF6E314A322A2750808E
:103EFD000A286E3150265C3250800A2858D8B0CA34
:103F0D00D7000E246E010E236E87EC1DF0120000FB
:103F1D000E256E35C026F0770EFAEC1DF0010E253C
:103F2D006E21C026F0770EFAEC1DF0020E256E36CE
:103F3D00C026F0770EFAEC1DF0030E256E3AC02662
:103F4D00F0770EFAEC1DF0040E256E3BC026F077CF
:103F5D000EFAEC1DF0050E256E37C026F0770EFA21
:103F6D00EC1DF0060E256E38C026F0770EFAEC1D0E
:103F7D00F0000E266E400E256E000E286E040E27E4
:103F8D006E0A0E59EC1EF0000E266E3C0E256E00CC
:103F9D000E286E040E276E0B0E59EC1EF0000E2629
:103FAD006E400E256E000E286E040E276E1FEC1E41
:103FBD00F0110E256E39C026F0770EFAEC1DF012B9
:103FCD000E256E39C026F0770EFAEC1DF0E10E25A8
:103FDD006E000E276E000E266E6E0E29EC1FF0E29F
:103FED000E256E000E276E000E266E6E0E29EC1F2E
:043FFD00F01200FFBF
:020000040020DA
:08000000FFFFFFFFFFFFFFFF00
:020000040030CA
:0E000000FF321E3CFFBD85FF03C003E003403E
:00000001FF
