:0400000027EF1FF0D7
:103DC4000A0269060102E7E7E7E7E7E7E7E7526E79
:103DD400A00E03EC1FF0525003EC1FF08982400E3A
:103DE400E82EFED789921200000E896E000E8A6EAC
:103DF400000E8B6E080E926E000E936E100E946E73
:103E04001200516E8994050EE82EFED700F051C0C1
:103E1400C9FFB00EE82EFED789841A0EE82EFED70D
:103E240000D01200C698C78CC78E3F0EC86EC6500D
:103E3400F00B0A09C66EC68A8984E40E00D000D04D
:103E4400E82EFCD700D000D0120000EE01F0420EA4
:103E5400EE6AE806FDE1C40EF66E3D0EF76E000E46
:103E6400F86E00EE43F010EE0EF00900F5CFEEFF11
:103E7400E550E150FAE1000196EF1FF0300E03EC3B
:103E84001FF0000E556E000E546E5550800A800FC0
:103E9400040ED8B4545CD8B0120054505224D96ED5
:103EA40055505320DA6EDF5003EC1FF0544A552A64
:103EB400ECD7546E5450200903EC1FF0000E566EDC
:103EC400000E556E5650800A800F040ED8B4555C0F
:103ED400D8B0120055505224D96E56505320DA6E81
:103EE400DF5003EC1FF0554A562AECD7000E556EEE
:103EF400000E546E000E556E000E546E0AD0E50E80
:103F0400536E910EE82EFED7532EFCD700F0544A80
:103F1400552A5550800A536E5150545C5250800AB1
:103F24005358D8B01200EBD7F6EC1EF014EC1FF087
:103F3400C5EC1FF04150E9EC1EF0414A422A000E44
:103F4400586E000E576E000E586E000E576E585085
:103F5400800A800F050ED8B4575CD8B0EBD7585000
:103F6400800A800F030ED8B4575CD8A002D0898091
:103F740001D08990000E526E140E516E78EC1FF031
:103F8400574A582AE4D7200E03EC1FF0435003ECA1
:103F94001FF0220E03EC1FF0445003EC1FF0210E1F
:103FA40003EC1FF0000E03EC1FF0230E03EC1FF0D4
:103FB400485003EC1FF0320E03EC1FF0475003ECA3
:103FC4001FF0000E536E4D0E526E40EC1FF0000EAB
:103FD400536E490E526E0B0E5BEC1FF0250E03EC74
:103FE4001FF0455003EC1FF0260E03EC1FF0465063
:0C3FF40003EC1FF0E10E03EC1FF01200C4
:020000040020DA
:08000000FFFFFFFFFFFFFFFF00
:020000040030CA
:0E000000FF321E3CFFBD85FF03C003E003403E
:00000001FF
