:04000000BCEF1EF043
:0E3CD400FF0E92EC1EF0C9CF54F054501200B7
:103CE3005A016906010220E7E7E7E7E7E7E7E7C6E6
:103CF30098C79CC78E7F0EC86EC650F00B0A09C6C4
:103D03006EC68A89841200040E896E000E8A6E00C4
:103D13000E8B6E080E926E000E936E100E946E1242
:103D230000536E8994D50EE82EFED700F053C0C918
:103D3300FFD50E00D000F0E82EFCD700D08984D543
:103D43000EE82EFED700F01200556EA00E92EC1E68
:103D5300F0555092EC1EF08982D50EE82EFED70066
:103D6300F08992090E546E4E0EE82EFED7542EFCA7
:103D7300D700D0120000EE01F0430EEE6AE806FD14
:103D8300E1E30EF66E3C0EF76E000EF86E00EE44A5
:103D9300F010EE0FF00900F5CFEEFFE550E150FA19
:103DA300E100019FEF1FF0300E92EC1EF0000E5762
:103DB3006E000E566E5750800A800F040ED8B4560C
:103DC3005CD8B0120056505424D96E57505520DA9F
:103DD3006EDF5092EC1EF0564A572AECD7566E56B9
:103DE30050200992EC1EF0000E586E000E576E58CC
:103DF30050800A800F040ED8B4575CD8B012005715
:103E0300505424D96E58505520DA6EDF5092EC1E70
:103E1300F0574A582AECD7000E576E000E566E0024
:103E23000E576E000E566E0AD0E50E556E910EE8D3
:103E33002EFED7552EFCD700F0564A572A575080EE
:103E43000A556E5350565C5450800A5558D8B012D8
:103E530000EBD7000E576E010E566E1CD0D50EE840
:103E63002EFED700F08994D50EE82EFED700F0CCB5
:103E73000EC96ED50E00D000F0E82EFCD700D08915
:103E830084010E5624D96E000E5720DA6EC9CFDF97
:103E9300FF564A572A5450800A556E5650535C5762
:103EA30050800A5558D8B0DAD7E40E00D000D0E8D5
:103EB3002EFCD700D000D01200200E92EC1EF0444E
:103EC3005092EC1EF0210E92EC1EF0435092EC1E29
:103ED300F0220E92EC1EF0455092EC1EF0230E924F
:103EE300EC1EF0495092EC1EF0240E92EC1EF04AA8
:103EF3005092EC1EF0250E92EC1EF0465092EC1EF2
:103F0300F0260E92EC1EF0475092EC1EF0000E5578
:103F13006E4B0E546E0A0EF0EC1EF0000E556E4FF3
:103F23000E546ED5EC1EF0310E92EC1EF0485092FA
:103F3300EC1EF0E10E92EC1EF0120079EC1EF00084
:103F43000E546E010E536E0DEC1FF085EC1EF00047
:103F53000E546E010E536E0DEC1FF05EEC1FF0005D
:103F63000E546E010E536E0DEC1FF04150A6EC1E65
:103F7300F0414A422A150E596EC60EE82EFED75955
:103F83002EFCD700D06AEC1EF05A6E050E596E2631
:103F93000EE82EFED7592EFCD700D05A500E0AD861
:103FA300B414D08980000E546E050E536E0DEC1FB1
:103FB300F0270E92EC1EF0700E92EC1EF0000E54E1
:103FC3006E050E536E0DEC1FF08990E10E92EC1E00
:103FD300F0D50E00D000F0E82EFCD700D0000E92F2
:103FE300EC1EF0000E546E010E536E2BEC1FF0D539
:0E3FF3000E00D000F0E82EFCD700D0B7D7FFAC
:020000040020DA
:08000000FFFFFFFFFFFFFFFF00
:020000040030CA
:0E000000FF321E3CFFBD85FF03C003E003403E
:00000001FF
