:0400000041EF1FF0BD
:103E0D000A02690602E7E7E7E7E7E7E7E7C698C7CB
:103E1D008CC78E1F0EC86EC650F00B0A09C66EC633
:103E2D008A1200000E896E000E8A6E000E8B6E08CF
:103E3D000E926E000E936E100E946E12000F6E8920
:103E4D00840FC0C9FF89940B0E0E6E620EE82EFE14
:103E5D00D70E2EFCD700D01200106EA00E25EC1F31
:103E6D00F0105025EC1FF089826A0EE82EFED70067
:103E7D00D089921200186A176A0D0EF66E3E0EF773
:103E8D006E000EF86E00EE01F010EE0DF00900F56B
:103E9D00CFEEFFE550E150FAE10001ABEF1FF0303E
:103EAD000E25EC1FF0000E136E000E126E135080D7
:103EBD000A800F040ED8B4125CD8B0120012501044
:103ECD0024D96E13501120DA6EDF5025EC1FF0123D
:103EDD004A132AECD7000E126E000E116E000E1250
:103EED006E000E116E09D0D00E106ECA0EE82EFEA9
:103EFD00D7102EFCD7114A122A1250800A106E0EBE
:103F0D0050115C0F50800A1058D8B01200ECD71227
:103F1D006E1250200925EC1FF0000E146E000E13CA
:103F2D006E1450800A800F040ED8B4135CD8B012F2
:103F3D000013501024D96E14501120DA6EDF502565
:103F4D00EC1FF0134A142AECD718EC1FF00DEC1FE0
:103F5D00F0D1EC1FF08980175033EC1FF0174A1881
:103F6D002A8990000E166E000E156E000E166E004C
:103F7D000E156E1650800A800F050ED8B4155CD83C
:103F8D00B0E9D7000E0F6E050E0E6E71EC1FF01519
:103F9D004A162AEFD7200E25EC1FF0015025EC1FF5
:103FAD00F0220E25EC1FF0025025EC1FF0230E25FC
:103FBD00EC1FF0055025EC1FF0000E116E0A0E10CF
:103FCD006E56EC1FF0000E116E060E106E0A0E8E60
:103FDD00EC1FF0250E25EC1FF0035025EC1FF026ED
:103FED000E25EC1FF0045025EC1FF0E10E25EC1F03
:043FFD00F01200FFBF
:020000040020DA
:08000000FFFFFFFFFFFFFFFF00
:020000040030CA
:0E000000FF321E3CFFBD85FF03C003E003403E
:00000001FF
