:040000002CEF1EF0D3
:103B91002B016906010220E7E7E7E7E7E7E7E7230B
:103BA1006E23C0C9FFA00EE82EFED7C95012002314
:103BB100042410D8A406D00A0EE82EFED700D0891E
:103BC10084120089941200C698C78CC78E3F0EC814
:103BD1006EC650F00B0A09C66EC68A8984120008A7
:103BE1000E926E000E936E100E946E060E896E008C
:103BF1000E8A6E000E8B6E1200000E246E000E23D4
:103C01006ED8EC1DF0FF0ED0EC1DF0226E000E24DC
:103C11006E010E236ED8EC1DF01200000E276E000F
:103C21000E266E000E276E000E266E0AD0E50E25BA
:103C31006E910EE82EFED7252EFCD700F0264A27DE
:103C41002A2750800A256E2350265C2450800A259D
:103C510058D8B01200EBD700EE60F0200EEE6AE803
:103C610006FDE100EE01F0220EEE6AE806FDE191AB
:103C71000EF66E3B0EF76E000EF86E00EE33F0108E
:103C8100EE0FF00900F5CFEEFFE550E150FAE1004B
:103C910001F8EF1EF0276E000E246E000E236ED881
:103CA100EC1DF02750770AD8A40BD025502009D05D
:103CB100EC1DF0100EE82EFED72650D0EC1DF00EB4
:103CC100D02750720AD8A40AD02550D0EC1DF0108C
:103CD1000EE82EFED7FF0ED0EC1DF0266E000E244E
:103CE1006E010E236ED8EC1DF01200000E246E0042
:103CF1000E236ED8EC1DF0300ED0EC1DF0100EE846
:103D01002EFED728502710D8B429D0000E2E6E01D0
:103D11000E2D6E1AD0FF0E296EFF0E2A6E2DC02BAE
:103D2100F02EC02CF029502B262A502C222B502566
:103D310024D96E2C502620DA6EDF50D0EC1DF01005
:103D41000EE82EFED72D4A2E2A2850800A296E2DE4
:103D510050275C2E50800A2958D8B0DCD7000E2499
:103D61006E010E236ED8EC1DF012002D6E000E2494
:103D71006E000E236ED8EC1DF02D502009D0EC1DE5
:103D8100F0100EE82EFED728502710D8B429D00005
:103D91000E2F6E010E2E6E1AD0FF0E296EFF0E2A07
:103DA1006E2EC02BF02FC02CF029502B262A502C20
:103DB100222B502524D96E2C502620DA6EDF50D0CC
:103DC100EC1DF0100EE82EFED72E4A2F2A28508027
:103DD1000A296E2E50275C2F50800A2958D8B0DC52
:103DE100D7000E246E010E236ED8EC1DF01200F0E8
:103DF100EC1DF0E4EC1DF03EEC1FF08982000E2476
:103E01006E010E236E0EEC1EF089826A0EE82EFE04
:103E1100D700D0FDEC1DF022500E0AD8B427D0896E
:103E2100928980610E256E000E276E010E266E723C
:103E31000E95EC1FF0700E0001606F070E256E00ED
:103E41000E276E010E266E770E95EC1FF0000E24E4
:103E51006E500E236E0EEC1EF0E20E256E000E2744
:103E61006E000E266E6E0E95EC1FF08990000E24EA
:103E71006E140E236E0EEC1EF0C7D7000E256E33A6
:103E8100C026F0770E4BEC1EF0010E256E21C026E8
:103E9100F0770E4BEC1EF0020E256E34C026F07743
:103EA1000E4BEC1EF0030E256E38C026F0770E4B3C
:103EB100EC1EF0040E256E39C026F0770E4BEC1E79
:103EC100F0050E256E35C026F0770E4BEC1EF00680
:103ED1000E256E36C026F0770E4BEC1EF0000E2636
:103EE1006E3A0E256E000E286E040E276E0A0EB66F
:103EF100EC1EF0000E266E3E0E256E000E286E049E
:103F01000E276E76EC1EF0110E256E37C026F07767
:103F11000E4BEC1EF0E10E256E000E276E000E26F4
:103F21006E6E0E95EC1FF01200306E000E246E00C6
:103F31000E236ED8EC1DF03050770AD8A405D02599
:103F4100502009D0EC1DF00FD03050720AD8A404D3
:103F5100D02550D0EC1DF007D030506E0AD8A40304
:103F6100D02550D0EC1DF0100EE82EFED72750269C
:103F710010D8B43ED0000E326E010E316E2FD0FF3C
:103F81000E286EFF0E296E31C02AF032C02BF028A8
:103F9100502A2629502B22010E2A24D96E000E2BDD
:103FA10020DA6EFF0E2C6EFF0E2D6E31C02EF03218
:103FB100C02FF02C502E262D502F220001600E2EE6
:103FC10024E16E0001000E2F20E26EE750D0EC1DBF
:103FD100F0DF6E100EE82EFED7314A322A275080CC
:103FE1000A286E3150265C3250800A2858D8B0C752
:103FF100D7000E246E010E236ED8EC1DF01200FFC7
:020000040020DA
:08000000FFFFFFFFFFFFFFFF00
:020000040030CA
:0E000000FF321E3CFFBD85FF03C003E003403E
:00000001FF
