:04000000C1EF1DF03F
:103AFC0054045510D8A402D0898412008994120061
:103B0C00546E54C0C9FF500EE82EFED7C950120097
:103B1D004A0101046906010220E7E7E7E7E7E7E765
:103B2D00E7C698C78CC78E1F0EC86EC650F00B0A1D
:103B3D0009C66EC68A89841200080E926E000E9315
:103B4D006E100E946E040E896E000E8A6E000E8B32
:103B5D006E1200000E556E000E546E7EEC1DF0FFC1
:103B6D000E86EC1DF0426E000E556E010E546E7EEB
:103B7D00EC1DF0120000EE01F0420EEE6AE806FDBB
:103B8D00E11D0EF66E3B0EF76E000EF86E00EE4365
:103B9D00F010EE11F00900F5CFEEFFE550E150FA0F
:103BAD00E1000188EF1FF0000E586E000E576E00F9
:103BBD000E586E000E576E0AD0E50E566E910EE839
:103BCD002EFED7562EFCD700F0574A582A58508053
:103BDD000A566E5450575C5550800A5658D8B0123C
:103BED0000EBD7586E000E556E000E546E7EEC1D18
:103BFD00F05850770AD8A408D05650200986EC1DED
:103C0D00F0575086EC1DF00BD05850720AD8A4070F
:103C1D00D0565086EC1DF0FF0E86EC1DF0576E0051
:103C2D000E556E010E546E7EEC1DF01200000E55F9
:103C3D006E000E546E7EEC1DF0300E86EC1DF059AC
:103C4D00505810D8B41AD0000E5C6E000E5B6E0B7F
:103C5D00D05B505624D96E5C505720DA6EDF5086FB
:103C6D00EC1DF05B4A5C2A5C50800A5A6E58505B22
:103C7D005C5950800A5A58D8A0EBD7000E556E01EA
:103C8D000E546E7EEC1DF012005B6E000E556E0034
:103C9D000E546E7EEC1DF05B50200986EC1DF05924
:103CAD00505810D8B41AD0000E5D6E000E5C6E0B1D
:103CBD00D05C505624D96E5D505720DA6EDF508699
:103CCD00EC1DF05C4A5D2A5D50800A5A6E58505CBE
:103CDD005C5950800A5A58D8A0EBD7000E556E018A
:103CED000E546E7EEC1DF012005C6E000E556E00D3
:103CFD000E546E7EEC1DF05C50770AD8A405D0569C
:103D0D0050200986EC1DF00FD05C50720AD8A40427
:103D1D00D0565086EC1DF007D05C506E0AD8A40327
:103D2D00D0565086EC1DF058505710D8B421D00005
:103D3D000E5B6E000E5A6E12D0010E5A24D96E0013
:103D4D000E5B20DA6E210E5A24E16E000E5B20E22E
:103D5D006EE75086EC1DF0DF6E5A4A5B2A5B508091
:103D6D000A596E57505A5C5850800A5958D8A0E4D9
:103D7D00D7000E556E010E546E7EEC1DF012000034
:103D8D000E556E000E546E7EEC1DF0A00E86EC1DD1
:103D9D00F057505610D8B41AD0000E5C6E000E5B62
:103DAD006E0BD0210E5B24D96E000E5C20DA6EDF17
:103DBD005086EC1DF05B4A5C2A5C50800A586E56AA
:103DCD00505B5C5750800A5858D8A0EBD71A0EE8B4
:103DDD002EFED700D0000E556E010E546E7EEC1DDA
:103DED00F08982400EE82EFED78992040E586EBCE3
:103DFD000EE82EFED7582EFCD700D0000E5A6E00BE
:103E0D000E596E06D02A0EE82EFED700D0594A5A0A
:103E1D002A5A50800A586E5650595C5750800A588D
:103E2D0058D8B01200EFD7000E566E43C057F0773A
:103E3D000EF8EC1DF0010E566E41C057F0770EF8DE
:103E4D00EC1DF0020E566E45C057F0770EF8EC1DC6
:103E5D00F0030E566E4AC057F0770EF8EC1DF004C5
:103E6D000E566E4BC057F0770EF8EC1DF0050E5642
:103E7D006E47C057F0770EF8EC1DF0060E566E48E3
:103E8D00C057F0770EF8EC1DF0000E576E4C0E5625
:103E9D006E000E596E040E586E0A0E4BEC1EF0009D
:103EAD000E576E500E566E000E596E040E586E1D46
:103EBD00EC1EF0110E566E49C057F0770EF8EC1D42
:103ECD00F01C0E566E44C057F0770EF8EC1DF01D29
:103EDD000E566E46C057F0770EF8EC1DF0E10E56FB
:103EED006E000E586E000E576E6E0E7BEC1EF0E2DD
:103EFD000E566E000E586E000E576E6E0E7BEC1E3B
:103F0D00F01200A3EC1DF097EC1DF01AEC1FF00061
:103F1D000E556E010E546EDAEC1DF06A0E226E3FD8
:103F2D000E236EB60E246E6A0E256E3F0E266EB6ED
:103F3D000E276E6A0E286E3F0E296EB60E2A6E6A19
:103F4D000E2B6E3F0E2C6EB60E2D6E6A0E2E6E3F24
:103F5D000E2F6EB60E306E6A0E316E3F0E326EB68D
:103F6D000E336E6A0E346E3F0E356EB60E366E6AB9
:103F7D000E376E3F0E386EB60E396E6A0E3A6E3FC4
:103F8D000E3B6EB60E3C6EB60E3D6E6A0E3E6E3F2D
:103F9D000E3F6EB60E406E000E5F6E010E5E6E5ED3
:103FAD00C021F0000E576E100E566EC6EC1EF05E60
:103FBD004A5F2AB0EC1DF042500E0AD8B413D089D6
:103FCD0080700E216E070E566E000E586E010E5744
:103FDD006E770E7BEC1EF0000E556E0A0E546EDAE7
:103FED00EC1DF08990010E556EF40E546EDAEC1D39
:043FFD00F0D6D7FF24
:020000040020DA
:08000000FFFFFFFFFFFFFFFF00
:020000040030CA
:0E000000FF321E3CFFBD85FF03C003E003403E
:00000001FF
