:0400000051EF00F0CC
:10000800FACF12F0FBCF13F0E9CF14F0B4EF02F0FF
:10001800D8CF01F0E8CF02F0E0CF03F0FACF04F038
:10002800FBCF05F0E9CF06F0EACF07F0E1CF08F003
:10003800E2CF09F0D9CF0AF0DACF0BF0F3CF0CF00A
:10004800F4CF0DF0F6CF0EF0F7CF0FF0F8CF10F099
:10005800F5CF11F011C0F5FF10C0F8FF0FC0F7FF82
:100068000EC0F6FF0DC0F4FF0CC0F3FF0BC0DAFFA3
:100078000AC0D9FF09C0E2FF08C0E1FF07C0EAFFD4
:1000880006C0E9FF05C0FBFF04C0FAFF03C0E0FF9C
:1000980002C0E8FF01C0D8FF1000A8EF03F0E4ECAD
:1000A80003F0000E296E280E286E6CEC02F0AFECFF
:1000B80001F0F1EC03F0000E216E010E206EC6EC8B
:1000C80003F0480E0001816F4F0E0001826F580E39
:1000D8000001836F490E0001846F5F0E0001856F78
:1000E8002F0E0001866F740E0001876F6F0E0001DE
:1000F800886F3A0E0001896FA80E00018A6F6F0E93
:1001080000018B6F630E00018C6F880E00018D6FEC
:100118005F0E00018E6F480E00018F6F980E000170
:10012800906F6F0E0001916F5C0E0001926F4A0E86
:100138000001936F6F0E0001946F3E0E0001956FE2
:10014800620E0001966F6F0E0001976F520E00014C
:10015800986F860E0001996F7F0E00019A6F480E06
:1001680000019B6F660E00019C6FC00E00019D6F21
:100178005F0E00019E6F7A0E00019F6F000E000156
:10018800B16F010E0001B06F4E0E0001B36F200E6B
:100198000001B26F300E0001806F070E226E000E54
:1001A800246E010E236E770E1DEC02F03D50D8B47C
:1001B80010D0300E0001806F070E226E000E246EE4
:1001C800010E236E770E1DEC02F0000E3C6E000E41
:1001D8003D6E000E0001B25D320E0001B359D8A089
:1001E80014D03C6612D0B0C080F0000E236E050E0D
:1001F800226EEEEC02F00001B04BB12B000E0001B4
:10020800B36F000E0001B26F08D03C6606D089803B
:100218006A0EE82EFED700D08990C80E00F0E82EAE
:10022800FDD70001B24BB32BC1D7000E0001A16F5F
:100238002750800A800F08E1000E265C05E1000EB9
:10024800255C02E1000E245CD8B00BD0271E261EC8
:10025800251E246C000E252226222722010E0001CD
:10026800A16F2350800A800F08E1000E225C05E18F
:10027800000E215C02E1000E205CD8B00BD0231EDA
:10028800221E211E206C000E212222222322010E72
:100298000001A11B000E0001A26F000E0001A36F58
:1002A800000E0001A46F000E0001A56F2750241056
:1002B80025102610D8B433D0010E0001A06F07D046
:1002C800D89024362536263627360001A02B27AEAF
:1002D800F7D70001D8900001A2370001A337000129
:1002E800A4370001A5372450205C255021582650FA
:1002F800225827502358D8A00AD02450205E2550D1
:10030800215A2650225A2750235A0001A281D890F8
:1003180027322632253224320001A02FDAD70001F5
:10032800A151D8B40FD00001A51F0001A41F0001DE
:10033800A31F0001A26D000E0001A3230001A42346
:100348000001A523A2C020F0A3C021F0A4C022F080
:10035800A5C023F01200000E226E2AC023F0770EEB
:1003680083EC03F0010E226E3BC023F0770E83EC82
:1003780003F0020E226E2CC023F0770E83EC03F0FC
:10038800030E226E31C023F0770E83EC03F0040EC7
:10039800226E32C023F0770E83EC03F0050E226E36
:1003A8002EC023F0770E83EC03F0060E226E2FC0CA
:1003B80023F0770E83EC03F0000E236E330E226ECB
:1003C800000E256E040E246E0A0E25EC03F0000EB6
:1003D800236E370E226E000E256E040E246E55EC29
:1003E80003F0110E226E30C023F0770E83EC03F079
:1003F8001C0E226E2BC023F0770E83EC03F01D0E2B
:10040800226E2DC023F0770E83EC03F0E10E226EEE
:10041800000E246E000E236E6E0E1DEC02F0E20E2E
:10042800226E000E246E000E236E6E0E1DEC02F07E
:100438001200266E000E216E000E206E0BEC04F0EA
:100448002650770AD8A405D02250200903EC04F0DE
:100458000FD02650720AD8A404D0225003EC04F01E
:1004680007D026506E0AD8A403D0225003EC04F01B
:1004780024502310D8B425D0000E286E000E276E05
:1004880016D00001600E2724D96E0001000E282026
:10049800DA6E0001800E2724E16E0001000E28208C
:1004A800E26EE75003EC04F0DF6E274A282A285052
:1004B800800A256E2350275C2450800A2558D8A02E
:1004C800E0D7000E216E010E206E0BEC04F0120036
:1004D800C698C78CC78E28C024F029C025F0266A84
:1004E800276A800E206E020E216E000E226E000E0C
:1004F800236E19EC01F020C0AAF021C0ABF022C095
:10050800ACF023C0ADF0AAC020F0ABC021F0ACC065
:1005180022F0ADC023F0040E246E000E256E000EEE
:10052800266E000E276E19EC01F020C0A6F021C03F
:10053800A7F022C0A8F023C0A9F0FF0E0001A6254D
:100548000001AE6FFF0E0001A7210001AF6FAEC022
:10055800C8FFC650F00B0A09C66EC68A8984120005
:10056800EACF15F0E1CF16F0E2CF17F0D9CF18F0A7
:10057800DACF19F0F3CF1AF0F4CF1BF0F6CF1CF056
:10058800F7CF1DF0F8CF1EF0F5CF1FF0F2A005D081
:1005980081B802D0010E3D6EF2901FC0F5FF1EC05B
:1005A800F8FF1DC0F7FF1CC0F6FF1BC0F4FF1AC000
:1005B800F3FF19C0DAFF18C0D9FF17C0E2FF16C051
:1005C800E1FF15C0EAFF14C0E9FF13C0FBFF12C02A
:1005D800FAFF1100000E216E000E206E0BEC04F0E5
:1005E800A00E03EC04F023502210D8B41CD0000E47
:1005F800266E000E256E0DD00001800E2524D96EC2
:100608000001000E2620DA6EDF5003EC04F0254AC4
:10061800262A2650800A246E2250255C2350800A00
:100628002458D8A0E9D7000E216E010E206E0BECDD
:1006380004F08982400EE82EFED78992010E3C6EA6
:100648001200276E000E216E000E206E0BEC04F0D7
:100658002750200903EC04F025502410D8B41AD0F0
:10066800000E296E000E286E0BD028502224D96E59
:1006780029502320DA6EDF5003EC04F0284A292A97
:100688002950800A266E2450285C2550800A265856
:10069800D8A0EBD7000E216E010E206E0BEC04F0F3
:1006A8001200000E216E000E206E0BEC04F0300ECE
:1006B80003EC04F025502410D8B41AD0000E286E8C
:1006C800000E276E0BD027502224D96E28502320E5
:1006D800DA6EDF5003EC04F0274A282A2850800AF3
:1006E800266E2450275C2550800A2658D8A0EBD7C0
:1006F800000E216E010E206E0BEC04F01200246E29
:10070800000E216E000E206E0BEC04F02450770AC8
:10071800D8A408D02250200903EC04F0235003EC9D
:1007280004F00BD02450720AD8A407D0225003EC4E
:1007380004F0FF0E03EC04F0236E000E216E010E90
:10074800206E0BEC04F0120000EE60F0400EEE6A32
:10075800E806FDE13F6A3E6A3D6A3C6A3B6AF40E80
:10076800F66E070EF76E000EF86E00EE2AF010EE29
:1007780011F00900F5CFEEFFE550E150FAE1000174
:1007880053EF00F0000E246E000E236E000E246E50
:10079800000E236E0AD0E50E226E910EE82EFED7CB
:1007A800222EFCD700F0234A242A2450800A226EE5
:1007B8002050235C2150800A2258D8B01200EBD771
:1007C800000E926E100E936E100E946E040E896ECB
:1007D800000E8A6E000E8B6E12009E966288F29052
:1007E800F180F286D08EF28EF28C12005A0101044A
:1007F8006906010221E7E7E7E7E7E7E7E700206E98
:1008080020C0C9FF9EA6FED79E96C950120020049C
:0E0818002110D8A402D0898412008994120005
:020000040020DA
:08000000FFFFFFFFFFFFFFFF00
:020000040030CA
:0E000000FF321E3CFFBD85FF03C003E003403E
:00000001FF
