:04000000EEEF1DF012
:103B180023042410D8A402D08984120089941200A6
:103B29004A0101046906010220E7E7E7E7E7E7E759
:103B3900E7236E23C0C9FF2A0EE82EFED700D0C99D
:103B4900501200C698C78CC78E0F0EC86EC650F0AB
:103B59000B0A09C66EC68A89841200080E926E0085
:103B69000E936E100E946E040E896E000E8A6E000E
:103B79000E8B6E1200000E246E000E236E8CEC1D4F
:103B8900F0FF0E9DEC1DF0226E000E246E010E2337
:103B99006E8CEC1DF01200000E276E000E266E00D2
:103BA9000E276E000E266E0AD0E50E256E910EE8E0
:103BB9002EFED7252EFCD700F0264A272A2750802B
:103BC9000A256E2350265C2450800A2558D8B01245
:103BD90000EBD700EE60F0200EEE6AE806FDE1008A
:103BE900EE01F0220EEE6AE806FDE1290EF66E3BC3
:103BF9000EF76E000EF86E00EE35F010EE11F009BA
:103C090000F5CFEEFFE550E150FAE10001E7EF1EC4
:103C1900F0276E000E246E000E236E8CEC1DF0272B
:103C290050770AD8A408D0255020099DEC1DF0260C
:103C3900509DEC1DF00BD02750720AD8A407D0254F
:103C4900509DEC1DF0FF0E9DEC1DF0266E000E241C
:103C59006E010E236E8CEC1DF01200000E246E0016
:103C69000E236E8CEC1DF0300E9DEC1DF0285027B4
:103C790010D8B426D0000E2E6E010E2D6E17D0FF6F
:103C89000E296EFF0E2A6E2DC02BF02EC02CF029A6
:103C9900502B262A502C222B502524D96E2C502605
:103CA90020DA6EDF509DEC1DF02D4A2E2A28508017
:103CB9000A296E2D50275C2E50800A2958D8B0DF6A
:103CC900D7000E246E010E236E8CEC1DF012002D10
:103CD9006E000E246E000E236E8CEC1DF02D50200C
:103CE900099DEC1DF028502710D8B426D0000E2FBE
:103CF9006E010E2E6E17D0FF0E296EFF0E2A6E2E44
:103D0900C02BF02FC02CF029502B262A502C222B07
:103D1900502524D96E2C502620DA6EDF509DEC1DDB
:103D2900F02E4A2F2A2850800A296E2E50275C2F00
:103D390050800A2958D8B0DFD7000E246E010E230F
:103D49006E8CEC1DF01200000E246E000E236E8C9A
:103D5900EC1DF0A00E9DEC1DF026502510D8B426C0
:103D6900D0000E2C6E010E2B6E17D0FF0E276EFFA2
:103D79000E286E2BC029F02CC02AF027502926289E
:103D8900502A22010E2924D96E000E2A20DA6EDF6C
:103D9900509DEC1DF02B4A2C2A2650800A276E2BA9
:103DA90050255C2C50800A2758D8B0DFD7000E2444
:103DB9006E010E236E8CEC1DF08982400EE82EFEFA
:103DC900D789921200B2EC1DF0A6EC1DF092EC1FFF
:103DD900F0000E246E010E236ED0EC1DF0000E349F
:103DE9006E010E336E33C001F06A0E026E3F0E0390
:103DF9006EB60E046E000E266E040E256EA8EC1E1D
:103E0900F0334A342A000E246E020E236ED0EC1DC4
:103E1900F0BFEC1DF022500E0AD8B413D08980707F
:103E29000E016E070E256E000E276E010E266E77A7
:103E39000E2DEC1FF0000E246E0A0E236ED0EC1D21
:103E4900F08990000E246E500E236ED0EC1DF0CA3E
:103E5900D7306E000E246E000E236E8CEC1DF030F0
:103E690050770AD8A405D0255020099DEC1DF00FE4
:103E7900D03050720AD8A404D025509DEC1DF0070B
:103E8900D030506E0AD8A403D025509DEC1DF027E0
:103E9900502610D8B43BD0000E326E010E316E2C74
:103EA900D0FF0E286EFF0E296E31C02AF032C02BCA
:103EB900F028502A2629502B220001600E2A24D9E5
:103EC9006E0001000E2B20DA6EFF0E2C6EFF0E2DF8
:103ED9006E31C02EF032C02FF02C502E262D502FCF
:103EE90022010E2E24E16E000E2F20E26EE7509D76
:103EF900EC1DF0DF6E314A322A2750800A286E31D4
:103F090050265C3250800A2858D8B0CAD7000E24EF
:103F19006E010E236E8CEC1DF01200000E256E351D
:103F2900C026F0770E0DEC1EF0010E256E21C0267D
:103F3900F0770E0DEC1EF0020E256E37C026F077D5
:103F49000E0DEC1EF0030E256E3CC026F0770E0D0B
:103F5900EC1EF0040E256E3DC026F0770E0DEC1E0A
:103F6900F0050E256E39C026F0770E0DEC1EF00611
:103F79000E256E3AC026F0770E0DEC1EF0000E26C7
:103F89006E3E0E256E000E286E040E276E0A0E6C0C
:103F9900EC1EF0000E266E420E256E000E286E04F1
:103FA9000E276E32EC1EF0110E256E3BC026F077FF
:103FB9000E0DEC1EF01C0E256E36C026F0770E0D88
:103FC900EC1EF01D0E256E38C026F0770E0DEC1E86
:103FD900F0E10E256E000E276E000E266E6E0E2D78
:103FE900EC1FF0E20E256E000E276E000E266E6E97
:083FF9000E2DEC1FF01200FF79
:020000040020DA
:08000000FFFFFFFFFFFFFFFF00
:020000040030CA
:0E000000FF321E3CFFBD85FF03C003E003403E
:00000001FF
