:0400000051EF00F0CC
:10000800FACF12F0FBCF13F0E9CF14F0CDEF02F0E6
:10001800D8CF01F0E8CF02F0E0CF03F0FACF04F038
:10002800FBCF05F0E9CF06F0EACF07F0E1CF08F003
:10003800E2CF09F0D9CF0AF0DACF0BF0F3CF0CF00A
:10004800F4CF0DF0F6CF0EF0F7CF0FF0F8CF10F099
:10005800F5CF11F011C0F5FF10C0F8FF0FC0F7FF82
:100068000EC0F6FF0DC0F4FF0CC0F3FF0BC0DAFFA3
:100078000AC0D9FF09C0E2FF08C0E1FF07C0EAFFD4
:1000880006C0E9FF05C0FBFF04C0FAFF03C0E0FF9C
:1000980002C0E8FF01C0D8FF1000DFEF03F00CEC4E
:1000A80004F0000E296E280E286E1CEC02F0AEEC4F
:1000B80001F0000E216E010E206EC1EC03F0480E17
:1000C8000001816F4F0E0001826F580E0001836F8F
:1000D800490E0001846F5F0E0001856F2F0E00012D
:1000E800866F740E0001876F6F0E0001886F3A0EDD
:1000F8000001896FA80E00018A6F6F0E00018B6FD7
:10010800630E00018C6F880E00018D6F5F0E000179
:100118008E6F480E00018F6F980E0001906F6F0E62
:100128000001916F5C0E0001926F4A0E0001936FFF
:100138006F0E0001946F3E0E0001956F620E000174
:10014800966F6F0E0001976F520E0001986F860E22
:100158000001996F7F0E00019A6F480E00019B6F96
:10016800660E00019C6FC00E00019D6F5F0E0001BE
:100178009E6F7A0E00019F6F19EC04F0000E0001CB
:10018800B76F010E0001B66F4E0E0001B96F200E59
:100198000001B86FFBEC03F00001A06709D089806B
:1001A800E40E00D000D0E82EFCD700D000D0899013
:1001B8000001B951800A320F200ED8B4B85DD8A01A
:1001C80011D0B6C080F0000E236E080E226E06EC29
:1001D80003F00001B64BB72B000E0001B96F000EFB
:1001E8000001B86F0001A105D8A412D0300E00019B
:1001F800806F070E226E000E246E010E236E770E9E
:100208007EEC02F0000E0001A06F000E0001A16F4D
:10021800050E2A6E260EE82EFED72A2EFCD700D011
:100228000001B84BB92BB6D7000E0001A36F2750B9
:10023800800A800F08E1000E265C05E1000E255CAF
:1002480002E1000E245CD8B00BD0271E261E251E06
:10025800246C000E252226222722010E0001A36FFE
:100268002350800A800F08E1000E225C05E1000E91
:10027800215C02E1000E205CD8B00BD0231E221EA8
:10028800211E206C000E212222222322010E0001B1
:10029800A31B000E0001A46F000E0001A56F000E45
:1002A8000001A66F000E0001A76F2750241025102B
:1002B8002610D8B433D0010E0001A26F07D0D89011
:1002C80024362536263627360001A22B27AEF7D747
:1002D8000001D8900001A4370001A5370001A63716
:1002E8000001A7372450205C255021582650225859
:1002F80027502358D8A00AD02450205E2550215AD0
:100308002650225A2750235A0001A481D890273218
:100318002632253224320001A22FDAD70001A35158
:10032800D8B40FD00001A71F0001A61F0001A51F08
:100338000001A46D000E0001A5230001A623000101
:10034800A723A4C020F0A5C021F0A6C022F0A7C012
:1003580023F01200000E226E2BC023F0770E9CECC7
:1003680003F0010E226E3CC023F0770E9CEC03F0E4
:10037800020E226E2DC023F0770E9CEC03F0030EC4
:10038800226E32C023F0770E9CEC03F0040E226E2E
:1003980033C023F0770E9CEC03F0050E226E2FC0BD
:1003A80023F0770E9CEC03F0060E226E30C023F08B
:1003B800770E9CEC03F0000E236E340E226E000EB6
:1003C800256E040E246E0A0E3EEC03F0000E236E1A
:1003D800380E226E000E256E040E246E6EEC03F0AD
:1003E800110E226E31C023F0770E9CEC03F01C0E28
:1003F800226E2CC023F0770E9CEC03F01D0E226EAB
:100408002EC023F0770E9CEC03F0E10E226E000E56
:10041800246E000E236E6E0E7EEC02F0E20E226E4B
:10042800000E246E000E236E6E0E7EEC02F012009B
:10043800C698C78CC78E28C024F029C025F0266A24
:10044800276A000E206EFA0E216E000E226E000E34
:10045800236E18EC01F020C0ACF021C0ADF022C032
:10046800AEF023C0AFF0640E246E000E256E000EB1
:10047800266E000E276EACC020F0ADC021F0AEC0D5
:1004880022F0AFC023F018EC01F020C0B0F021C07A
:10049800B1F022C0B2F023C0B3F0B0C020F0B1C0B8
:1004A80021F0B2C022F0B3C023F0040E246E000E77
:1004B800256E000E266E000E276E18EC01F020C087
:1004C800A8F021C0A9F022C0AAF023C0ABF0FF0E0B
:1004D8000001A8250001B46FFF0E0001A921000149
:1004E800B56FB4C0C8FFC650F00B0A09C66EC68AFD
:1004F80089841200266E000E216E000E206E33ECE9
:1005080004F02650770AD8A405D0225020092BECF5
:1005180004F00FD02650720AD8A404D022502BEC35
:1005280004F007D026506E0AD8A403D022502BEC32
:1005380004F024502310D8B425D0000E286E000EE5
:10054800276E16D00001600E2724D96E0001000E18
:100558002820DA6E0001800E2724E16E0001000ECB
:100568002820E26EE7502BEC04F0DF6E274A282A99
:100578002850800A256E2350275C2450800A25586D
:10058800D8A0E0D7000E216E010E206E33EC04F0E7
:100598001200EACF15F0E1CF16F0E2CF17F0D9CF6D
:1005A80018F0DACF19F0F3CF1AF0F4CF1BF0F6CF2A
:1005B8001CF0F7CF1DF0F8CF1EF0F5CF1FF0F2A01A
:1005C80004D0010E0001A16FF2901FC0F5FF1EC0FC
:1005D800F8FF1DC0F7FF1CC0F6FF1BC0F4FF1AC0D0
:1005E800F3FF19C0DAFF18C0D9FF17C0E2FF16C021
:1005F800E1FF15C0EAFF14C0E9FF13C0FBFF12C0FA
:10060800FAFF1100000E216E000E206E33EC04F08C
:10061800A00E2BEC04F023502210D8B41CD0000EEE
:10062800266E000E256E0DD00001800E2524D96E91
:100638000001000E2620DA6EDF502BEC04F0254A6C
:10064800262A2650800A246E2250255C2350800AD0
:100658002458D8A0E9D7000E216E010E206E33EC85
:1006680004F08982400EE82EFED78992010E00011F
:10067800A06F1200276E000E216E000E206E33EC64
:1006880004F0275020092BEC04F025502410D8B48E
:100698001AD0000E296E000E286E0BD02850222486
:1006A800D96E29502320DA6EDF502BEC04F0284A4B
:1006B800292A2950800A266E2450285C2550800A51
:1006C8002658D8A0EBD7000E216E010E206E33EC11
:1006D80004F01200000E216E000E206E33EC04F0C0
:1006E800300E2BEC04F025502410D8B41AD0000E8C
:1006F800286E000E276E0BD027502224D96E285062
:100708002320DA6EDF502BEC04F0274A282A2850E1
:10071800800A266E2450275C2550800A2658D8A0C7
:10072800EBD7000E216E010E206E33EC04F01200A0
:10073800246E000E216E000E206E33EC04F024505F
:10074800770AD8A408D0225020092BEC04F02350B3
:100758002BEC04F00BD02450720AD8A407D02250F6
:100768002BEC04F0FF0E2BEC04F0236E000E216E30
:10077800010E206E33EC04F01200000E246E000E01
:10078800236E000E246E000E236E0AD0E50E226E34
:10079800910EE82EFED7222EFCD700F0234A242AF9
:1007A8002450800A226E2050235C2150800A22584F
:1007B800D8B01200EBD700EE60F0420EEE6AE80601
:1007C800FDE13E6A3D6A3C6A440EF66E080EF76E1D
:1007D800000EF86E00EE2BF010EE11F00900F5CFC8
:1007E800EEFFE550E150FAE1000153EF00F0000E92
:1007F800216E000E206E33EC04F0FF0E2BEC04F09B
:100808003D6E000E216E010E206E33EC04F01200D6
:10081800000E926E100E936E100E946E040E896E7A
:10082800000E8A6E000E8B6E12009E96F286F18084
:100838006288F290D08EF28EF28C12005A01010476
:100848006906010221E7E7E7E7E7E7E7E700206E47
:1008580020C0C9FF9EA6FED79E96C950120020044C
:0E0868002110D8A402D08984120089941200B5
:020000040020DA
:08000000FFFFFFFFFFFFFFFF00
:020000040030CA
:0E000000FF321E3CFFBD85FF03C003E003403E
:00000001FF
