:0400000051EF00F0CC
:10000800FACF14F0FBCF15F0E9CF16F0E7EF02F0C6
:10001800D8CF01F0E8CF02F0E0CF03F0FACF04F038
:10002800FBCF05F0E9CF06F0EACF07F0E1CF08F003
:10003800E2CF09F0D9CF0AF0DACF0BF0F3CF0CF00A
:10004800F4CF0DF0F6CF0EF0F7CF0FF0F8CF10F099
:10005800F5CF11F011C0F5FF10C0F8FF0FC0F7FF82
:100068000EC0F6FF0DC0F4FF0CC0F3FF0BC0DAFFA3
:100078000AC0D9FF09C0E2FF08C0E1FF07C0EAFFD4
:1000880006C0E9FF05C0FBFF04C0FAFF03C0E0FF9C
:1000980002C0E8FF01C0D8FF100031EF04F06EEC99
:1000A80004F0000E0001AB6F280E0001AA6F9DEC52
:1000B80002F0CEEC01F084EC04F0000E236E010E89
:1000C800226E13EC04F0480E0001816F4F0E000100
:1000D800826F580E0001836F490E0001846F5F0E16
:1000E8000001856F2F0E0001866F740E0001876F67
:1000F8006F0E0001886F3A0E0001896FA80E00018B
:100108008A6F6F0E00018B6F630E00018C6F880E73
:1001180000018D6F5F0E00018E6F480E00018F6F1A
:10012800980E0001906F6F0E0001916F5C0E000138
:10013800926F4A0E0001936F6F0E0001946F3E0E8E
:100148000001956F620E0001966F6F0E0001976FA8
:10015800520E0001986F860E0001996F7F0E000104
:100168009A6F480E00019B6F660E00019C6FC00ECF
:1001780000019D6F5F0E00019E6F7A0E00019F6F58
:10018800000E0001B76F010E0001B66F4E0E0001A0
:10019800B96F200E0001B86F300E0001806F070E96
:1001A800246E000E266E010E256E770E4EEC02F0C0
:1001B800B8C022F0B9C023F0030E256E200E246EBD
:1001C800F2EC03F023502210D8A404D089804CEC20
:1001D80004F089800001A151D8B412D0300E00017A
:1001E800806F070E246E000E266E010E256E770EA8
:1001F8004EEC02F0000E0001A06F000E0001A16F8E
:100208000001A351D8B404D08986000E0001A36F61
:100218000001A251D8B404D08988000E0001A26F51
:10022800000E0001B85D320E0001B959D8A014D0F3
:100238000001A06711D0B6C080F0000E256E030E35
:10024800246E67EC03F00001B64BB72B000E0001DB
:10025800B96F000E0001B86FC80E00F0E82EFDD788
:100268000001B84BB92BA4D7000E0001A56F295087
:10027800800A800F08E1000E285C05E1000E275C6B
:1002880002E1000E265CD8B00BD0291E281E271EBE
:10029800266C000E272228222922010E0001A56FB4
:1002A8002550800A800F08E1000E245C05E1000E4D
:1002B800235C02E1000E225CD8B00BD0251E241E60
:1002C800231E226C000E232224222522010E000167
:1002D800A51B000E0001A66F000E0001A76F000EFF
:1002E8000001A86F000E0001A96F295026102710E1
:1002F8002810D8B433D0010E0001A46F07D0D890CD
:1003080026362736283629360001A42B29AEF7D7FA
:100318000001D8900001A6370001A7370001A837CF
:100328000001A9372650225C27502358285024580A
:1003380029502558D8A00AD02650225E2750235A83
:100348002850245A2950255A0001A681D8902932CC
:100358002832273226320001A42FDAD70001A5510E
:10036800D8B40FD00001A91F0001A81F0001A71FC2
:100378000001A66D000E0001A7230001A8230001BB
:10038800A923A6C022F0A7C023F0A8C024F0A9C0C2
:1003980025F01200000E246E2BC025F0770ECDEC50
:1003A80003F0010E246E2DC025F0770ECDEC03F07E
:1003B800020E246E2EC025F0770ECDEC03F0030E4E
:1003C800246E33C025F0770ECDEC03F0040E246EB6
:1003D80034C025F0770ECDEC03F0050E246E30C046
:1003E80025F0770ECDEC03F0060E246E31C025F013
:1003F800770ECDEC03F0000E256E390E246E000E3C
:10040800276E040E266E0A0E2EEC03F0000E256EE3
:10041800350E246E000E276E040E266E0B0E2EEC83
:1004280003F0000E256E390E246E000E276E040EA2
:10043800266E9FEC03F0120E246E32C025F0770E64
:10044800CDEC03F0110E246E32C025F0770ECDEC02
:1004580003F01C0E246E2CC025F0770ECDEC03F0B3
:100468001D0E246E2FC025F0770ECDEC03F0E10EA3
:10047800246E000E266E000E256E6E0E4EEC02F0F7
:10048800E20E246E000E266E000E256E6E0E4EECE9
:1004980002F01200286E000E236E000E226E95ECFC
:1004A80004F02850770AD8A405D0245020098DECF0
:1004B80004F00FD02850720AD8A404D024508DEC30
:1004C80004F007D028506E0AD8A403D024508DEC2D
:1004D80004F026502510D8B425D0000E2A6E000E40
:1004E800296E16D00001600E2924D96E0001000E75
:1004F8002A20DA6E0001800E2924E16E0001000E28
:100508002A20E26EE7508DEC04F0DF6E294A2A2A91
:100518002A50800A276E2550295C2650800A2758C1
:10052800D8A0E0D7000E236E010E226E95EC04F0E1
:100538001200C698C78CC78E0001AAC026F0000119
:10054800ABC027F0286A296A800E226E020E236E3D
:10055800000E246E000E256E38EC01F022C0B0F0BB
:1005680023C0B1F024C0B2F025C0B3F0B0C022F06F
:10057800B1C023F0B2C024F0B3C025F0040E266E3B
:10058800000E276E000E286E000E296E38EC01F062
:1005980022C0ACF023C0ADF024C0AEF025C0AFF04F
:1005A800FF0E0001AC250001B46FFF0E0001AD2164
:1005B8000001B56FB4C0C8FFC650F00B0A09C66E7B
:1005C800C68A89841200EACF17F0E1CF18F0E2CF8B
:1005D80019F0D9CF1AF0DACF1BF0F3CF1CF0F4CF13
:1005E8001DF0F6CF1EF0F7CF1FF0F8CF20F0F5CFB3
:1005F80021F0F2A012D081B80FD0010E0001A16F36
:100608005DEC04F03DAA03D0010E0001A36F3DA8E4
:1006180003D0010E0001A26FF29021C0F5FF20C0A7
:10062800F8FF1FC0F7FF1EC0F6FF1DC0F4FF1CC077
:10063800F3FF1BC0DAFF1AC0D9FF19C0E2FF18C0C8
:10064800E1FF17C0EAFF16C0E9FF15C0FBFF14C0A1
:10065800FAFF11000001A46F000E236E000E226E37
:1006680095EC04F00001A45120098DEC04F027500A
:100678002610D8B421D0000E0001A66F000E00018C
:10068800A56F0ED00001A5512424D96E0001A651F2
:100698002520DA6EDF508DEC04F00001A54BA62B67
:1006A8000001A651800A286E26500001A55D27503A
:1006B800800A2858D8A0E6D7000E236E010E226EB5
:1006C80095EC04F01200000E236E000E226E95ECDD
:1006D80004F0A00E8DEC04F025502410D8B41CD0E2
:1006E800000E286E000E276E0DD00001800E272404
:1006F800D96E0001000E2820DA6EDF508DEC04F070
:10070800274A282A2850800A266E2450275C25501C
:10071800800A2658D8A0E9D7000E236E010E226E53
:1007280095EC04F08982400EE82EFED78992010EDE
:100738000001A06F1200000E236E000E226E95ECD1
:1007480004F0300E8DEC04F027502610D8B41AD0DF
:10075800000E2A6E000E296E0BD029502424D96E63
:100768002A502520DA6EDF508DEC04F0294A2A2A17
:100778002A50800A286E2650295C2750800A28585B
:10078800D8A0EBD7000E236E010E226E95EC04F074
:100798001200266E000E236E000E226E95EC04F0F9
:1007A8002650770AD8A408D0245020098DEC04F0EC
:1007B80025508DEC04F00BD02650720AD8A407D02F
:1007C80024508DEC04F0FF0E8DEC04F0256E000E25
:1007D800236E010E226E95EC04F0120025502410B1
:1007E800D8B418D0010E266E04D0D89024362536F9
:1007F800262A25AEFAD72450225C25502358D8A0A3
:1008080004D02450225E2550235AD8902532243211
:10081800262EF1D722C022F023C023F01200000EAA
:10082800266E000E256E000E266E000E256E0AD06E
:10083800E50E246E910EE82EFED7242EFCD700F08C
:10084800254A262A2650800A246E2250255C2350E9
:10085800800A2458D8B01200EBD700EE60F0440E9E
:10086800EE6AE806FDE13E6A3D6AF60EF66E080E8F
:10087800F76E000EF86E00EE2BF010EE12F0090085
:10088800F5CFEEFFE550E150FAE1000153EF00F03B
:10089800000E236E000E226E95EC04F0FF0E8DEC18
:1008A80004F03D6E000E236E010E226E95EC04F0EE
:1008B8001200000E136E000E126EA5EC04F0FF0E6F
:1008C8009DEC04F03D6E000E136E010E126EA5EC49
:1008D80004F01200000E926E100E936E100E946EBD
:1008E800040E896E000E8A6E000E8B6E12004A018D
:1008F8000303046906010235E7E7E7E7C7C7C7C787
:100908009E966288F290F180F286D08EF28EF28CFA
:100918001200226E22C0C9FF9EA6FED79E96C9501D
:10092800120022042310D8A402D0898412008994CA
:100938001200126E12C0C9FF9EA6FED79E96C9501D
:10094800120012041310D8A402D0898412008994CA
:0209580012008B
:020000040020DA
:08000000FFFFFFFFFFFFFFFF00
:020000040030CA
:0E000000FF321E3CFFBD85FF03C003E003403E
:00000001FF
