:0400000051EF00F0CC
:10000800FACF80F0FBCF81F0E9CF82F0DFEF01F08B
:10001800D8CF23F0E8CF24F0E0CF25F0FACF26F0B0
:10002800FBCF27F0E9CF28F0EACF29F0E1CF2AF07B
:10003800E2CF2BF0D9CF2CF0DACF2DF0F3CF2EF082
:10004800F4CF2FF0F6CF30F0F7CF31F0F8CF32F011
:10005800F5CF33F033C0F5FF32C0F8FF31C0F7FFFA
:1000680030C0F6FF2FC0F4FF2EC0F3FF2DC0DAFF1B
:100078002CC0D9FF2BC0E2FF2AC0E1FF29C0EAFF4C
:1000880028C0E9FF27C0FBFF26C0FAFF25C0E0FF14
:1000980024C0E8FF23C0D8FF100095EF02F0E3EC7E
:1000A80002F0F0EC02F0D4EC00F0000E356E010E18
:1000B800346EB4EC02F0480E026E4F0E036E580E0A
:1000C800046E490E056E5F0E066E2F0E076E740ED7
:1000D800086E6F0E096E3A0E0A6EA80E0B6E6F0E42
:1000E8000C6E630E0D6E880E0E6E5F0E0F6E480E50
:1000F800106E980E116E6F0E126E5C0E136E4A0E15
:10010800146E6F0E156E3E0E166E620E176E6F0E23
:10011800186E520E196E860E1A6E7F0E1B6E480EE2
:100128001C6E660E1D6EC00E1E6E5F0E1F6E7A0E62
:10013800206E000E00018F6F010E00018E6F8EC0C1
:1001480001F0000E376E050E366E42EC01F000012C
:100158008E4B8F2BD2EC02F022500E0AD8B419D055
:100168008980200E016E070E366E000E386E010E65
:10017800376E770E92EC01F06A0EE82EFED700D0AB
:10018800D2EC02F0000E356E0A0E346EB4EC02F0BA
:100198008990010E356EF40E346EB4EC02F0CFD7B0
:1001A800000E366E3EC037F0770E70EC02F0010E8E
:1001B800366E21C037F0770E70EC02F0020E366E04
:1001C80040C037F0770E70EC02F0030E366E45C073
:1001D80037F0770E70EC02F0040E366E46C037F03A
:1001E800770E70EC02F0050E366E42C037F0770ECF
:1001F80070EC02F0060E366E43C037F0770E70ECE6
:1002080002F0000E376E470E366E000E396E040E81
:10021800386E0A0E12EC02F0000E376E4B0E366E78
:10022800000E396E040E386E42EC02F0110E366E76
:1002380044C037F0770E70EC02F01C0E366E3FC0EB
:1002480037F0770E70EC02F01D0E366E41C037F0B5
:10025800770E70EC02F0E10E366E000E386E000E6E
:10026800376E6E0E92EC01F0E20E366E000E386EAE
:10027800000E376E6E0E92EC01F01200000E356E15
:10028800000E346E0EEC03F0A00EFCEC02F03750BA
:100298003610D8B41AD0000E3C6E000E3B6E0BD050
:1002A800010E3B24D96E000E3C20DA6EDF50FCECC8
:1002B80002F03B4A3C2A3C50800A386E36503B5C80
:1002C8003750800A3858D8A0EBD7000E356E010E8B
:1002D800346E0EEC03F08982400EE82EFED7899228
:1002E800040E386EBC0EE82EFED7382EFCD700D090
:1002F800000E3A6E000E396E06D02A0EE82EFED792
:1003080000D0394A3A2A3A50800A386E3650395C59
:100318003750800A3858D8B01200EFD73A6E000E1E
:10032800356E000E346E0EEC03F03A50770AD8A4FE
:1003380005D036502009FCEC02F00FD03A50720A72
:10034800D8A404D03650FCEC02F007D03A506E0A1C
:10035800D8A403D03650FCEC02F038503710D8B48B
:1003680023D0000E3C6E000E3B6E14D00001600ED0
:100378003B24D96E0001000E3C20DA6E010E3B24AE
:10038800E16E000E3C20E26EE750FCEC02F0DF6EFE
:100398003B4A3C2A3C50800A396E37503B5C385007
:1003A800800A3958D8A0E2D7000E356E010E346E97
:1003B8000EEC03F01200EACF83F0E1CF84F0E2CF35
:1003C80085F0D9CF86F0DACF87F0F3CF88F0F4CF75
:1003D80089F0F6CF8AF0F7CF8BF0F8CF8CF0F5CF15
:1003E8008DF08DC0F5FF8CC0F8FF8BC0F7FF8AC079
:1003F800F6FF89C0F4FF88C0F3FF87C0DAFF86C024
:10040800D9FF85C0E2FF84C0E1FF83C0EAFF82C054
:10041800E9FF81C0FBFF80C0FAFF11003B6E000EB0
:10042800356E000E346E0EEC03F03B502009FCECE8
:1004380002F039503810D8B41AD0000E3D6E000EB4
:100448003C6E0BD03C503624D96E3D503720DA6EC6
:10045800DF50FCEC02F03C4A3D2A3D50800A3A6EDF
:1004680038503C5C3950800A3A58D8A0EBD7000E77
:10047800356E010E346E0EEC03F01200000E356E70
:10048800000E346E0EEC03F0300EFCEC02F0395026
:100498003810D8B41AD0000E3C6E000E3B6E0BD04C
:1004A8003B503624D96E3C503720DA6EDF50FCECD6
:1004B80002F03B4A3C2A3C50800A3A6E38503B5C7A
:1004C8003950800A3A58D8A0EBD7000E356E010E85
:1004D800346E0EEC03F01200386E000E356E000E0E
:1004E800346E0EEC03F03850770AD8A408D0365092
:1004F8002009FCEC02F03750FCEC02F00BD038502D
:10050800720AD8A407D03650FCEC02F0FF0EFCECBF
:1005180002F0376E000E356E010E346E0EEC03F0ED
:10052800120000EE60F0200EEE6AE806FDE100EE33
:1005380001F0220EEE6AE806FDE10A0EF66E060EDE
:10054800F76E000EF86E00EE3EF010EE11F00900A6
:10055800F5CFEEFFE550E150FAE1000153EF00F06E
:10056800000E386E000E376E000E386E000E376EB5
:100578000AD0E50E366E910EE82EFED7362EFCD741
:1005880000F0374A382A3850800A366E3450375CC3
:100598003550800A3658D8B01200EBD7000E356EA9
:1005A800000E346E0EEC03F0FF0EFCEC02F0226E2F
:1005B800000E356E010E346E0EEC03F01200080EBC
:1005C800926E000E936E100E946E040E896E000EDD
:1005D8008A6E000E8B6E1200C698C78CC78E010EED
:1005E800C86EC650F00B0A09C66EC68A8984120006
:1005F800346E34C0C9FF0A0EE82EFED700D0C950A9
:1006080012005A0101046906010221E7E7E7E7E75A
:10061800E7E7E70034043510D8A402D08984120033
:04062800899412009F
:020000040020DA
:08000000FFFFFFFFFFFFFFFF00
:020000040030CA
:0E000000FF321E3CFFBD85FF03C003E003403E
:00000001FF
