:0400000051EF00F0CC
:10000800FACF12F0FBCF13F0E9CF14F0FCEF02F0B7
:10001800D8CF01F0E8CF02F0E0CF03F0FACF04F038
:10002800FBCF05F0E9CF06F0EACF07F0E1CF08F003
:10003800E2CF09F0D9CF0AF0DACF0BF0F3CF0CF00A
:10004800F4CF0DF0F6CF0EF0F7CF0FF0F8CF10F099
:10005800F5CF11F011C0F5FF10C0F8FF0FC0F7FF82
:100068000EC0F6FF0DC0F4FF0CC0F3FF0BC0DAFFA3
:100078000AC0D9FF09C0E2FF08C0E1FF07C0EAFFD4
:1000880006C0E9FF05C0FBFF04C0FAFF03C0E0FF9C
:1000980002C0E8FF01C0D8FF1000D0EF03F0FDEC6C
:1000A80003F0000E296E280E286EF9EC01F08BEC97
:1000B80001F0000E216E010E206EB2EC03F0480E26
:1000C8000001816F4F0E0001826F580E0001836F8F
:1000D800490E0001846F5F0E0001856F2F0E00012D
:1000E800866F740E0001876F6F0E0001886F3A0EDD
:1000F8000001896FA80E00018A6F6F0E00018B6FD7
:10010800630E00018C6F880E00018D6F5F0E000179
:100118008E6F480E00018F6F980E0001906F6F0E62
:100128000001916F5C0E0001926F4A0E0001936FFF
:100138006F0E0001946F3E0E0001956F620E000174
:10014800966F6F0E0001976F520E0001986F860E22
:100158000001996F7F0E00019A6F480E00019B6F96
:10016800660E00019C6FC00E00019D6F5F0E0001BE
:100178009E6F7A0E00019F6F000E2B6E010E2A6E85
:100188002AC080F0000E236E050E226E5BEC02F092
:100198002A4A2B2AECEC03F03E500E0AD8B41AD0A7
:1001A8008980200E0001806F070E226E000E246EDB
:1001B800010E236E770EADEC02F06A0EE82EFED724
:1001C80000D0ECEC03F0000E216E0A0E206EB2ECAB
:1001D80003F08990010E216EF40E206EB2EC03F04C
:1001E800CFD7000E0001A16F2750800A800F08E1C9
:1001F800000E265C05E1000E255C02E1000E245C81
:10020800D8B00BD0271E261E251E246C000E2522D2
:1002180026222722010E0001A16F2350800A800F99
:1002280008E1000E225C05E1000E215C02E1000EEF
:10023800205CD8B00BD0231E221E211E206C000E7D
:10024800212222222322010E0001A11B000E0001FF
:10025800A26F000E0001A36F000E0001A46F000E34
:100268000001A56F2750241025102610D8B433D0CC
:10027800010E0001A06F07D0D89024362536263607
:1002880027360001A02B27AEF7D70001D890000130
:10029800A2370001A3370001A4370001A537245075
:1002A800205C255021582650225827502358D8A082
:1002B8000AD02450205E2550215A2650225A275011
:1002C800235A0001A281D8902732263225322432BF
:1002D8000001A02FDAD70001A151D8B40FD0000136
:1002E800A51F0001A41F0001A31F0001A26D000E9D
:1002F8000001A3230001A4230001A523A2C020F02C
:10030800A3C021F0A4C022F0A5C023F01200000E63
:10031800226E2CC023F0770E8DEC03F0010E226EB6
:100328003DC023F0770E8DEC03F0020E226E2EC036
:1003380023F0770E8DEC03F0030E226E33C023F00A
:10034800770E8DEC03F0040E226E34C023F0770E86
:100358008DEC03F0050E226E30C023F0770E8DEC85
:1003680003F0060E226E31C023F0770E8DEC03F0F9
:10037800000E236E350E226E000E256E040E246EBE
:100388000A0E2FEC03F0000E236E390E226E000EBB
:10039800256E040E246E5FEC03F0110E226E32C03F
:1003A80023F0770E8DEC03F01C0E226E2DC023F087
:1003B800770E8DEC03F01D0E226E2FC023F0770E02
:1003C8008DEC03F0E10E226E000E246E000E236EFB
:1003D8006E0EADEC02F0E20E226E000E246E000EE0
:1003E800236E6E0EADEC02F01200C698C78CC78E55
:1003F80028C024F029C025F0266A276A000E206E3E
:10040800FA0E216E000E226E000E236EF5EC00F03F
:1004180020C0AAF021C0ABF022C0ACF023C0ADF0E0
:10042800640E246E000E256E000E266E000E276EDA
:10043800AAC020F0ABC021F0ACC022F0ADC023F0C0
:10044800F5EC00F020C0AEF021C0AFF022C0B0F053
:1004580023C0B1F0AEC020F0AFC021F0B0C022F090
:10046800B1C023F0040E246E000E256E000E266E19
:10047800000E276EF5EC00F020C0A6F021C0A7F012
:1004880022C0A8F023C0A9F0FF0E0001A625000194
:10049800B26FFF0E0001A7210001B36FB2C0C8FF01
:1004A800C650F00B0A09C66EC68A89841200000E6F
:1004B800216E000E206E1BEC04F0A00E13EC04F06D
:1004C80023502210D8B41CD0000E286E000E276EC0
:1004D8000DD00001800E2724D96E0001000E2820BF
:1004E800DA6EDF5013EC04F0274A282A2850800AD5
:1004F800246E2250275C2350800A2458D8A0E9D7BC
:10050800000E216E010E206E1BEC04F08982400E55
:10051800E82EFED78992040E246EBC0EE82EFED774
:10052800242EFCD700D0000E266E000E256E06D0B5
:100538002A0EE82EFED700D0254A262A2650800A01
:10054800246E2250255C2350800A2458D8B012000B
:10055800EFD7266E000E216E000E206E1BEC04F005
:100568002650770AD8A405D02250200913EC04F0AD
:100578000FD02650720AD8A404D0225013EC04F0ED
:1005880007D026506E0AD8A403D0225013EC04F0EA
:1005980024502310D8B425D0000E286E000E276EE4
:1005A80016D00001600E2724D96E0001000E282005
:1005B800DA6E0001800E2724E16E0001000E28206B
:1005C800E26EE75013EC04F0DF6E274A282A285021
:1005D800800A256E2350275C2450800A2558D8A00D
:1005E800E0D7000E216E010E206E1BEC04F0120005
:1005F800EACF15F0E1CF16F0E2CF17F0D9CF18F017
:10060800DACF19F0F3CF1AF0F4CF1BF0F6CF1CF0C5
:10061800F7CF1DF0F8CF1EF0F5CF1FF01FC0F5FF84
:100628001EC0F8FF1DC0F7FF1CC0F6FF1BC0F4FF7B
:100638001AC0F3FF19C0DAFF18C0D9FF17C0E2FFCC
:1006480016C0E1FF15C0EAFF14C0E9FF13C0FBFFA5
:1006580012C0FAFF1100276E000E216E000E206EE8
:100668001BEC04F02750200913EC04F0255024104B
:10067800D8B41AD0000E296E000E286E0BD0285060
:100688002224D96E29502320DA6EDF5013EC04F0AF
:10069800284A292A2950800A266E2450285C255089
:1006A800800A2658D8A0EBD7000E216E010E206EC6
:1006B8001BEC04F01200000E216E000E206E1BECE5
:1006C80004F0300E13EC04F025502410D8B41AD0DE
:1006D800000E286E000E276E0BD027502224D96EEC
:1006E80028502320DA6EDF5013EC04F0274A282A1A
:1006F8002850800A266E2450275C2550800A2658E8
:10070800D8A0EBD7000E216E010E206E1BEC04F072
:100718001200246E000E216E000E206E1BEC04F0F9
:100728002450770AD8A408D02250200913EC04F0EA
:10073800235013EC04F00BD02450720AD8A407D02D
:10074800225013EC04F0FF0E13EC04F0236E000E9D
:10075800216E010E206E1BEC04F01200000E246EB8
:10076800000E236E000E246E000E236E0AD0E50ED6
:10077800226E910EE82EFED7222EFCD700F0234AD7
:10078800242A2450800A226E2050235C2150800A9B
:100798002258D8B01200EBD700EE60F0400EEE6A97
:1007A800E806FDE13F6A3E6A3D6A140EF66E080EE1
:1007B800F76E000EF86E00EE2CF010EE11F0090046
:1007C800F5CFEEFFE550E150FAE1000153EF00F0FC
:1007D800000E216E000E206E1BEC04F0FF0E13ECD1
:1007E80004F03E6E000E216E010E206E1BEC04F02C
:1007F8001200000E926E100E936E100E946E040E80
:10080800896E000E8A6E000E8B6E12005A0101046A
:100818006906010221E7E7E7E7E7E7E7E700206E77
:1008280020C0C9FF9EA6FED79E96C950120020047C
:0E0838002110D8A402D08984120089941200E5
:020000040020DA
:08000000FFFFFFFFFFFFFFFF00
:020000040030CA
:0E000000FF321E3CFFBD85FF03C003E003403E
:00000001FF
